{
  "_format": "hh-sol-artifact-1",
  "contractName": "AdminManagement",
  "sourceName": "contracts/AdminManagement.sol",
  "abi": [
    {
      "inputs": [
        {
          "internalType": "address[]",
          "name": "initialAdmins_",
          "type": "address[]"
        }
      ],
      "stateMutability": "nonpayable",
      "type": "constructor"
    },
    {
      "anonymous": false,
      "inputs": [
        {
          "indexed": true,
          "internalType": "address",
          "name": "from",
          "type": "address"
        },
        {
          "indexed": true,
          "internalType": "address",
          "name": "to",
          "type": "address"
        }
      ],
      "name": "AccountRemoval",
      "type": "event"
    },
    {
      "anonymous": false,
      "inputs": [
        {
          "indexed": true,
          "internalType": "address",
          "name": "from",
          "type": "address"
        },
        {
          "indexed": true,
          "internalType": "address",
          "name": "to",
          "type": "address"
        }
      ],
      "name": "AdminAcception",
      "type": "event"
    },
    {
      "anonymous": false,
      "inputs": [
        {
          "indexed": false,
          "internalType": "address",
          "name": "newAdmin",
          "type": "address"
        },
        {
          "indexed": true,
          "internalType": "address",
          "name": "requester",
          "type": "address"
        }
      ],
      "name": "AdminActivation",
      "type": "event"
    },
    {
      "anonymous": false,
      "inputs": [
        {
          "indexed": false,
          "internalType": "address",
          "name": "newAdmin",
          "type": "address"
        },
        {
          "indexed": true,
          "internalType": "address",
          "name": "requester",
          "type": "address"
        }
      ],
      "name": "AdminAddition",
      "type": "event"
    },
    {
      "anonymous": false,
      "inputs": [
        {
          "indexed": false,
          "internalType": "address",
          "name": "newAdmin",
          "type": "address"
        },
        {
          "indexed": true,
          "internalType": "address",
          "name": "requester",
          "type": "address"
        }
      ],
      "name": "AdminInactivation",
      "type": "event"
    },
    {
      "anonymous": false,
      "inputs": [
        {
          "indexed": true,
          "internalType": "address",
          "name": "from",
          "type": "address"
        },
        {
          "indexed": true,
          "internalType": "address",
          "name": "to",
          "type": "address"
        }
      ],
      "name": "AdminRejection",
      "type": "event"
    },
    {
      "anonymous": false,
      "inputs": [
        {
          "indexed": true,
          "internalType": "address",
          "name": "account",
          "type": "address"
        },
        {
          "indexed": false,
          "internalType": "uint256",
          "name": "id",
          "type": "uint256"
        }
      ],
      "name": "MasterAdminRequestAcception",
      "type": "event"
    },
    {
      "anonymous": false,
      "inputs": [
        {
          "indexed": false,
          "internalType": "uint256",
          "name": "id",
          "type": "uint256"
        },
        {
          "indexed": false,
          "internalType": "address",
          "name": "account",
          "type": "address"
        },
        {
          "indexed": false,
          "internalType": "uint256",
          "name": "startTime",
          "type": "uint256"
        },
        {
          "indexed": true,
          "internalType": "address",
          "name": "requester",
          "type": "address"
        },
        {
          "indexed": false,
          "internalType": "bool",
          "name": "isPropose",
          "type": "bool"
        }
      ],
      "name": "MasterAdminRequestAddition",
      "type": "event"
    },
    {
      "anonymous": false,
      "inputs": [
        {
          "indexed": true,
          "internalType": "address",
          "name": "account",
          "type": "address"
        },
        {
          "indexed": false,
          "internalType": "uint256",
          "name": "id",
          "type": "uint256"
        }
      ],
      "name": "MasterAdminRequestRejection",
      "type": "event"
    },
    {
      "anonymous": false,
      "inputs": [
        {
          "indexed": true,
          "internalType": "address",
          "name": "account",
          "type": "address"
        },
        {
          "indexed": false,
          "internalType": "uint256",
          "name": "id",
          "type": "uint256"
        }
      ],
      "name": "RequestActivation",
      "type": "event"
    },
    {
      "anonymous": false,
      "inputs": [
        {
          "indexed": true,
          "internalType": "address",
          "name": "account",
          "type": "address"
        },
        {
          "indexed": false,
          "internalType": "uint256",
          "name": "id",
          "type": "uint256"
        }
      ],
      "name": "RequestInactivation",
      "type": "event"
    },
    {
      "inputs": [],
      "name": "MAX_ADMIN_COUNT",
      "outputs": [
        {
          "internalType": "uint256",
          "name": "",
          "type": "uint256"
        }
      ],
      "stateMutability": "view",
      "type": "function"
    },
    {
      "inputs": [
        {
          "internalType": "address",
          "name": "account",
          "type": "address"
        }
      ],
      "name": "acceptAdmin",
      "outputs": [],
      "stateMutability": "nonpayable",
      "type": "function"
    },
    {
      "inputs": [
        {
          "internalType": "uint256",
          "name": "id",
          "type": "uint256"
        }
      ],
      "name": "acceptRequest",
      "outputs": [],
      "stateMutability": "nonpayable",
      "type": "function"
    },
    {
      "inputs": [
        {
          "internalType": "address",
          "name": "account",
          "type": "address"
        }
      ],
      "name": "getAdminStatus",
      "outputs": [
        {
          "internalType": "enum AdminStatusEnum",
          "name": "",
          "type": "uint8"
        }
      ],
      "stateMutability": "view",
      "type": "function"
    },
    {
      "inputs": [
        {
          "internalType": "address",
          "name": "account",
          "type": "address"
        },
        {
          "internalType": "address",
          "name": "admin",
          "type": "address"
        }
      ],
      "name": "getAdminVote",
      "outputs": [
        {
          "internalType": "enum VoteEnum",
          "name": "",
          "type": "uint8"
        }
      ],
      "stateMutability": "view",
      "type": "function"
    },
    {
      "inputs": [],
      "name": "getAllAdmin",
      "outputs": [
        {
          "internalType": "address[]",
          "name": "",
          "type": "address[]"
        }
      ],
      "stateMutability": "view",
      "type": "function"
    },
    {
      "inputs": [],
      "name": "getMasterAdmin",
      "outputs": [
        {
          "internalType": "address",
          "name": "",
          "type": "address"
        }
      ],
      "stateMutability": "view",
      "type": "function"
    },
    {
      "inputs": [
        {
          "internalType": "uint256",
          "name": "limit",
          "type": "uint256"
        },
        {
          "internalType": "uint256",
          "name": "offSet",
          "type": "uint256"
        }
      ],
      "name": "getPaginationRequest",
      "outputs": [
        {
          "components": [
            {
              "internalType": "uint256",
              "name": "id",
              "type": "uint256"
            },
            {
              "internalType": "address",
              "name": "account",
              "type": "address"
            },
            {
              "internalType": "uint256",
              "name": "createdAt",
              "type": "uint256"
            },
            {
              "internalType": "uint256",
              "name": "releasedAt",
              "type": "uint256"
            },
            {
              "internalType": "enum RequestStatusEnum",
              "name": "status",
              "type": "uint8"
            },
            {
              "internalType": "bool",
              "name": "isPropose",
              "type": "bool"
            }
          ],
          "internalType": "struct IAdminManagement.Request[]",
          "name": "",
          "type": "tuple[]"
        }
      ],
      "stateMutability": "view",
      "type": "function"
    },
    {
      "inputs": [
        {
          "internalType": "uint256",
          "name": "id",
          "type": "uint256"
        },
        {
          "internalType": "enum VoteEnum",
          "name": "voteType",
          "type": "uint8"
        }
      ],
      "name": "getRequestTotalVoteByStatus",
      "outputs": [
        {
          "internalType": "uint256",
          "name": "",
          "type": "uint256"
        }
      ],
      "stateMutability": "view",
      "type": "function"
    },
    {
      "inputs": [],
      "name": "getRequired",
      "outputs": [
        {
          "internalType": "uint256",
          "name": "",
          "type": "uint256"
        }
      ],
      "stateMutability": "view",
      "type": "function"
    },
    {
      "inputs": [],
      "name": "getTotalRequest",
      "outputs": [
        {
          "internalType": "uint256",
          "name": "",
          "type": "uint256"
        }
      ],
      "stateMutability": "view",
      "type": "function"
    },
    {
      "inputs": [
        {
          "internalType": "address",
          "name": "account",
          "type": "address"
        },
        {
          "internalType": "enum VoteEnum",
          "name": "voteType",
          "type": "uint8"
        }
      ],
      "name": "getTotalRequestVote",
      "outputs": [
        {
          "internalType": "uint256",
          "name": "",
          "type": "uint256"
        }
      ],
      "stateMutability": "view",
      "type": "function"
    },
    {
      "inputs": [
        {
          "internalType": "address",
          "name": "account",
          "type": "address"
        }
      ],
      "name": "grantAdminRole",
      "outputs": [],
      "stateMutability": "nonpayable",
      "type": "function"
    },
    {
      "inputs": [
        {
          "internalType": "uint256",
          "name": "id",
          "type": "uint256"
        }
      ],
      "name": "inactiveRequest",
      "outputs": [],
      "stateMutability": "nonpayable",
      "type": "function"
    },
    {
      "inputs": [
        {
          "internalType": "address",
          "name": "account",
          "type": "address"
        }
      ],
      "name": "isAdmin",
      "outputs": [
        {
          "internalType": "bool",
          "name": "",
          "type": "bool"
        }
      ],
      "stateMutability": "view",
      "type": "function"
    },
    {
      "inputs": [
        {
          "internalType": "address",
          "name": "account",
          "type": "address"
        }
      ],
      "name": "isMasterAdmin",
      "outputs": [
        {
          "internalType": "bool",
          "name": "",
          "type": "bool"
        }
      ],
      "stateMutability": "view",
      "type": "function"
    },
    {
      "inputs": [],
      "name": "masterAdminIsAdmin",
      "outputs": [
        {
          "internalType": "bool",
          "name": "",
          "type": "bool"
        }
      ],
      "stateMutability": "view",
      "type": "function"
    },
    {
      "inputs": [
        {
          "components": [
            {
              "internalType": "uint256",
              "name": "id",
              "type": "uint256"
            },
            {
              "internalType": "address",
              "name": "account",
              "type": "address"
            },
            {
              "internalType": "uint256",
              "name": "createdAt",
              "type": "uint256"
            },
            {
              "internalType": "uint256",
              "name": "releasedAt",
              "type": "uint256"
            },
            {
              "internalType": "enum RequestStatusEnum",
              "name": "status",
              "type": "uint8"
            },
            {
              "internalType": "bool",
              "name": "isPropose",
              "type": "bool"
            }
          ],
          "internalType": "struct IAdminManagement.Request",
          "name": "data",
          "type": "tuple"
        }
      ],
      "name": "proposeMasterAdmin",
      "outputs": [],
      "stateMutability": "nonpayable",
      "type": "function"
    },
    {
      "inputs": [
        {
          "internalType": "address",
          "name": "account",
          "type": "address"
        }
      ],
      "name": "rejectAdmin",
      "outputs": [],
      "stateMutability": "nonpayable",
      "type": "function"
    },
    {
      "inputs": [
        {
          "internalType": "uint256",
          "name": "id",
          "type": "uint256"
        }
      ],
      "name": "rejectRequest",
      "outputs": [],
      "stateMutability": "nonpayable",
      "type": "function"
    },
    {
      "inputs": [
        {
          "internalType": "address",
          "name": "account",
          "type": "address"
        }
      ],
      "name": "removeAccount",
      "outputs": [],
      "stateMutability": "nonpayable",
      "type": "function"
    },
    {
      "inputs": [],
      "name": "renounceAdminRole",
      "outputs": [],
      "stateMutability": "nonpayable",
      "type": "function"
    },
    {
      "inputs": [
        {
          "internalType": "address",
          "name": "account",
          "type": "address"
        }
      ],
      "name": "requestNewAdmin",
      "outputs": [],
      "stateMutability": "nonpayable",
      "type": "function"
    },
    {
      "inputs": [
        {
          "components": [
            {
              "internalType": "uint256",
              "name": "id",
              "type": "uint256"
            },
            {
              "internalType": "address",
              "name": "account",
              "type": "address"
            },
            {
              "internalType": "uint256",
              "name": "createdAt",
              "type": "uint256"
            },
            {
              "internalType": "uint256",
              "name": "releasedAt",
              "type": "uint256"
            },
            {
              "internalType": "enum RequestStatusEnum",
              "name": "status",
              "type": "uint8"
            },
            {
              "internalType": "bool",
              "name": "isPropose",
              "type": "bool"
            }
          ],
          "internalType": "struct IAdminManagement.Request",
          "name": "data",
          "type": "tuple"
        }
      ],
      "name": "requestRevokeMasterAdmin",
      "outputs": [],
      "stateMutability": "nonpayable",
      "type": "function"
    },
    {
      "inputs": [
        {
          "internalType": "address",
          "name": "admin",
          "type": "address"
        }
      ],
      "name": "revokeAdminRole",
      "outputs": [],
      "stateMutability": "nonpayable",
      "type": "function"
    },
    {
      "inputs": [
        {
          "internalType": "uint256",
          "name": "id",
          "type": "uint256"
        }
      ],
      "name": "submitRequest",
      "outputs": [],
      "stateMutability": "nonpayable",
      "type": "function"
    }
  ],
  "bytecode": "0x60806040523480156200001157600080fd5b506040516200276138038062002761833981016040819052620000349162000127565b60005b8151811015620000ec576000828281518110620000585762000058620001f9565b60209081029190910181015160008054600180820183557f290decd9548b62a8d60345a988386fc84ba6bc95484008f6362f93160ef3e56390910180546001600160a01b0319166001600160a01b039094169384179055918152600283526040808220805460ff19908116851790915593839052902080549092161790555080620000e3816200020f565b91505062000037565b505062000237565b634e487b7160e01b600052604160045260246000fd5b80516001600160a01b03811681146200012257600080fd5b919050565b600060208083850312156200013b57600080fd5b82516001600160401b03808211156200015357600080fd5b818501915085601f8301126200016857600080fd5b8151818111156200017d576200017d620000f4565b8060051b604051601f19603f83011681018181108582111715620001a557620001a5620000f4565b604052918252848201925083810185019188831115620001c457600080fd5b938501935b82851015620001ed57620001dd856200010a565b84529385019392850192620001c9565b98975050505050505050565b634e487b7160e01b600052603260045260246000fd5b6000600182016200023057634e487b7160e01b600052601160045260246000fd5b5060010190565b61251a80620002476000396000f3fe608060405234801561001057600080fd5b506004361061018e5760003560e01c80636a228aba116100de578063c634b78e11610097578063d96b1fc511610071578063d96b1fc51461037c578063db1fbe8e1461038f578063dcc8bc54146103af578063f7882c56146103c257600080fd5b8063c634b78e14610359578063ccf10e541461036c578063cf2c936e1461037457600080fd5b80636a228aba146102dc57806383b8a5ae146102f75780639617d5cd146102ff5780639a19c7b014610307578063c4740a951461031a578063c5efea681461032d57600080fd5b80631cdd16531161014b57806331a364241161012557806331a36424146102585780634ba1f0981461026d5780635cc0ac7414610280578063628806ef146102c957600080fd5b80631cdd16531461020f57806324d7806c146102225780632d7788db1461024557600080fd5b8063055899861461019357806307f21506146101a857806312da0c8f146101bb5780631398a5f6146101ce57806315dab9bb146101e9578063184734c9146101fc575b600080fd5b6101a66101a1366004611fda565b6103e4565b005b6101a66101b636600461204d565b61050d565b6101a66101c93660046120e5565b6105b7565b6101d66106f4565b6040519081526020015b60405180910390f35b6101a66101f73660046120e5565b610703565b6101d661020a366004612100565b61083a565b6101a661021d366004611fda565b61084d565b6102356102303660046120e5565b610a3c565b60405190151581526020016101e0565b6101a6610253366004611fda565b610a76565b610260610bbe565b6040516101e09190612130565b6101a661027b366004611fda565b610c20565b6102bc61028e36600461217d565b6001600160a01b03918216600090815260036020908152604080832093909416825291909152205460ff1690565b6040516101e091906121e4565b6101a66102d73660046120e5565b610d5f565b6004546040516001600160a01b0390911681526020016101e0565b6101a6610e91565b610235610f02565b6101a66103153660046120e5565b610f0c565b6101a66103283660046120e5565b611038565b6102bc61033b3660046120e5565b6001600160a01b031660009081526002602052604090205460ff1690565b6101a66103673660046120e5565b611125565b6005546101d6565b6101d6603281565b6101d661038a3660046121f7565b61127d565b6103a261039d366004612223565b611289565b6040516101e09190612245565b6101a66103bd36600461204d565b611295565b6102356103d03660046120e5565b6004546001600160a01b0390811691161490565b80600554811061040f5760405162461bcd60e51b8152600401610406906122d1565b60405180910390fd5b3360009081526002602081905260409091205460019160ff9091169081111561043a5761043a6121b0565b146104575760405162461bcd60e51b815260040161040690612308565b816000808281526006602052604090206004015460ff16600281111561047f5761047f6121b0565b1461049c5760405162461bcd60e51b81526004016104069061233f565b60003360008581526006602090815260409182902060048101805460ff19166002179055426003820155915187815292935090916001600160a01b038416917fc271b0d606087d16d2b1d1fa1c401087728101f17d6d82d894213a0cedaa758d910160405180910390a25050505050565b3360009081526002602081905260409091205460019160ff90911690811115610538576105386121b0565b146105555760405162461bcd60e51b815260040161040690612308565b60006040518060c00160405280600554815260200160006001600160a01b0316815260200183604001518152602001600081526020016000600281111561059e5761059e6121b0565b8152600060209091015290506105b38161140a565b5050565b60045433906001600160a01b0316811480610600575060016001600160a01b03821660009081526002602081905260409091205460ff16908111156105fe576105fe6121b0565b145b61061c5760405162461bcd60e51b815260040161040690612383565b6001600160a01b038216600090815260016020526040902054829060ff16156106875760405162461bcd60e51b815260206004820181905260248201527f41646d696e4d616e6167656d656e743a204163636f756e7420657869737465646044820152606401610406565b6000546032906106989060016123d0565b11156106e65760405162461bcd60e51b815260206004820152601e60248201527f41646d696e4d616e6167656d656e743a204c696d6974207265616368656400006044820152606401610406565b6106ef8361154e565b505050565b60006106fe6115e2565b905090565b6001600160a01b038116600090815260016020526040902054819060ff1661073d5760405162461bcd60e51b8152600401610406906123e8565b6001600160a01b0382166000908152600360209081526040808320338452909152902054829060029060ff1681811115610779576107796121b0565b036107c65760405162461bcd60e51b815260206004820152601960248201527f41646d696e4d616e6167656d656e743a2072656a6563746564000000000000006044820152606401610406565b60045433906001600160a01b031681148061080f575060016001600160a01b03821660009081526002602081905260409091205460ff169081111561080d5761080d6121b0565b145b61082b5760405162461bcd60e51b815260040161040690612383565b610834846116b7565b50505050565b60006108468383611714565b9392505050565b80600554811061086f5760405162461bcd60e51b8152600401610406906122d1565b3360009081526002602081905260409091205460019160ff9091169081111561089a5761089a6121b0565b146108b75760405162461bcd60e51b815260040161040690612308565b816000808281526006602052604090206004015460ff1660028111156108df576108df6121b0565b146108fc5760405162461bcd60e51b81526004016104069061233f565b826000610907611857565b610912576001610915565b60005b60ff16610923836001611714565b61092d91906123d0565b90506109376115e2565b8110156109865760405162461bcd60e51b815260206004820181905260248201527f41646d696e4d616e6167656d656e743a204e6f7420656e6f75676820766f74656044820152606401610406565b600085815260066020526040902060048101805460ff19166001179081905533919060ff61010090910416156109df576001810154600480546001600160a01b0319166001600160a01b039092169190911790556109f0565b600480546001600160a01b03191690555b816001600160a01b03167f0295e5116b8cf8382e621591bdd80ebee6d7f1757d4abe730c7a161b4c6fabd588604051610a2b91815260200190565b60405180910390a250505050505050565b600060016001600160a01b03831660009081526002602081905260409091205460ff1690811115610a6f57610a6f6121b0565b1492915050565b806005548110610a985760405162461bcd60e51b8152600401610406906122d1565b3360009081526002602081905260409091205460019160ff90911690811115610ac357610ac36121b0565b14610ae05760405162461bcd60e51b815260040161040690612308565b6000828152600760209081526040808320338452909152902054829060029060ff1681811115610b1257610b126121b0565b03610b5f5760405162461bcd60e51b815260206004820152601960248201527f41646d696e4d616e6167656d656e743a2052656a6563746564000000000000006044820152606401610406565b60008381526007602090815260408083203380855290835292819020805460ff191660021790555185815282917f2399b9d01e6135f600960e12943ccf886828389e98e069891bccff4a4d5df43f91015b60405180910390a250505050565b60606000805480602002602001604051908101604052809291908181526020018280548015610c1657602002820191906000526020600020905b81546001600160a01b03168152600190910190602001808311610bf8575b5050505050905090565b806005548110610c425760405162461bcd60e51b8152600401610406906122d1565b3360009081526002602081905260409091205460019160ff90911690811115610c6d57610c6d6121b0565b14610c8a5760405162461bcd60e51b815260040161040690612308565b6000828152600760209081526040808320338452909152902054829060019060ff166002811115610cbd57610cbd6121b0565b03610d0a5760405162461bcd60e51b815260206004820152601960248201527f41646d696e4d616e6167656d656e743a204163636570746564000000000000006044820152606401610406565b60008381526007602090815260408083203380855290835292819020805460ff191660011790555185815282917f044d44fe4ee75c9c1c44b73e96023df32a6ed43732fe9c130993c6b3b0067a649101610bb0565b6001600160a01b038116600090815260016020526040902054819060ff16610d995760405162461bcd60e51b8152600401610406906123e8565b6001600160a01b0382166000908152600360209081526040808320338452909152902054829060019060ff166002811115610dd657610dd66121b0565b03610e235760405162461bcd60e51b815260206004820152601960248201527f41646d696e4d616e6167656d656e743a206163636570746564000000000000006044820152606401610406565b60045433906001600160a01b0316811480610e6c575060016001600160a01b03821660009081526002602081905260409091205460ff1690811115610e6a57610e6a6121b0565b145b610e885760405162461bcd60e51b815260040161040690612383565b610834846118a4565b60045433906001600160a01b0316811480610eda575060016001600160a01b03821660009081526002602081905260409091205460ff1690811115610ed857610ed86121b0565b145b610ef65760405162461bcd60e51b815260040161040690612383565b610eff33611901565b50565b60006106fe611857565b60045433906001600160a01b0316811480610f55575060016001600160a01b03821660009081526002602081905260409091205460ff1690811115610f5357610f536121b0565b145b610f715760405162461bcd60e51b815260040161040690612383565b8160016001600160a01b03821660009081526002602081905260409091205460ff1690811115610fa357610fa36121b0565b14610ff05760405162461bcd60e51b815260206004820152601a60248201527f41646d696e4d616e6167656d656e743a204e6f742061646d696e0000000000006044820152606401610406565b610ff86115e2565b6110038460016119c9565b1015801561101357506000546002105b61102f5760405162461bcd60e51b81526004016104069061241f565b6106ef83611901565b60045433906001600160a01b0316811480611081575060016001600160a01b03821660009081526002602081905260409091205460ff169081111561107f5761107f6121b0565b145b61109d5760405162461bcd60e51b815260040161040690612383565b8160016001600160a01b03821660009081526002602081905260409091205460ff16908111156110cf576110cf6121b0565b0361111c5760405162461bcd60e51b815260206004820152601e60248201527f41646d696e4d616e6167656d656e743a20416c72656164792061646d696e00006044820152606401610406565b6106ef83611b20565b60045433906001600160a01b031681148061116e575060016001600160a01b03821660009081526002602081905260409091205460ff169081111561116c5761116c6121b0565b145b61118a5760405162461bcd60e51b815260040161040690612383565b8160016001600160a01b03821660009081526002602081905260409091205460ff16908111156111bc576111bc6121b0565b036112095760405162461bcd60e51b815260206004820152601e60248201527f41646d696e4d616e6167656d656e743a20416c72656164792061646d696e00006044820152606401610406565b6001600160a01b038316600090815260016020526040902054839060ff166112435760405162461bcd60e51b8152600401610406906123e8565b61124b6115e2565b6112568560016119c9565b10156112745760405162461bcd60e51b81526004016104069061241f565b61083484611ce7565b600061084683836119c9565b60606108468383611d4e565b3360009081526002602081905260409091205460019160ff909116908111156112c0576112c06121b0565b146112dd5760405162461bcd60e51b815260040161040690612308565b602081015181906001600160a01b03166113395760405162461bcd60e51b815260206004820152601d60248201527f41646d696e4d616e6167656d656e743a205a65726f20616464726573730000006044820152606401610406565b60045460208201516001600160a01b039182169116036113ad5760405162461bcd60e51b815260206004820152602960248201527f41646d696e4d616e6167656d656e743a204163636f756e7420776173206d61736044820152683a32b91030b236b4b760b91b6064820152608401610406565b60006040518060c00160405280600554815260200184602001516001600160a01b031681526020018460400151815260200160008152602001600060028111156113f9576113f96121b0565b8152600160209091015290506106ef815b806006600060055481526020019081526020016000206000820151816000015560208201518160010160006101000a8154816001600160a01b0302191690836001600160a01b03160217905550604082015181600201556060820151816003015560808201518160040160006101000a81548160ff02191690836002811115611495576114956121b0565b021790555060a09190910151600490910180549115156101000261ff0019909216919091179055600580549060006114cc83612466565b91905055506114d83390565b6001600160a01b03167f7960bab24f820d91314f57cc9a6ee8f104acaee934d0f3ba7551b8014391c83782600001518360200151428560a0015160405161154394939291909384526001600160a01b0392909216602084015260408301521515606082015260800190565b60405180910390a250565b60008054600180820183557f290decd9548b62a8d60345a988386fc84ba6bc95484008f6362f93160ef3e56390910180546001600160a01b0319166001600160a01b0385169081179091558083526020828152604093849020805460ff1916909317909255915191825233917fcad1d28aad14f2a0f27f32fbc8d1c6f97b600eb339a4b3acfde9edf2d113e0669101611543565b600080805b6000548110156116735760008082815481106116055761160561247f565b6000918252602090912001546001600160a01b0316905060016001600160a01b03821660009081526002602081905260409091205460ff169081111561164d5761164d6121b0565b03611660578261165c81612466565b9350505b508061166b81612466565b9150506115e7565b5061167c611857565b61168e578061168a81612466565b9150505b6002811161169b57919050565b6116a6600282612495565b6116b19060016123d0565b91505090565b6001600160a01b0381166000818152600360209081526040808320338085529252808320805460ff191660021790555190929183917fb21a17faa757cdd5672b4d33a2a79bf5799d7c6605289d24a6fd70baac20ea8b9190a35050565b600080600080548060200260200160405190810160405280929190818152602001828054801561176d57602002820191906000526020600020905b81546001600160a01b0316815260019091019060200180831161174f575b5050505050905060005b815181101561184f5760008282815181106117945761179461247f565b60209081029190910181015160008881526007835260408082206001600160a01b0384168352909352919091205490915060ff168560028111156117da576117da6121b0565b8160028111156117ec576117ec6121b0565b148015611827575060016001600160a01b03831660009081526002602081905260409091205460ff1690811115611825576118256121b0565b145b1561183a578461183681612466565b9550505b5050808061184790612466565b915050611777565b505092915050565b600060016004546001600160a01b031660009081526002602081905260409091205460ff169081111561188c5761188c6121b0565b14806106fe5750506004546001600160a01b03161590565b6001600160a01b0381166000818152600360209081526040808320338085529252808320805460ff191660011790555190929183917f5e081ea2cd43467dd906d7c49a495e925f00e409192a43832582166f61a9f45b9190a35050565b60005460011061195f5760405162461bcd60e51b815260206004820152602360248201527f41646d696e4d616e6167656d656e743a204c6173742061646d696e69737472616044820152623a37b960e91b6064820152608401610406565b6001600160a01b0381166000908152600260208190526040909120805460ff1916909117905561198e81611efa565b6040516001600160a01b038216815233907fb6bacc557dfd547b800212b92396b7bb1eb0a7c185cc43f728c1697af26acde390602001611543565b6000805b600054811015611aa95760008082815481106119eb576119eb61247f565b60009182526020808320909101546001600160a01b0388811684526003835260408085209190921680855292529091205490915060ff16846002811115611a3457611a346121b0565b816002811115611a4657611a466121b0565b148015611a81575060016001600160a01b03831660009081526002602081905260409091205460ff1690811115611a7f57611a7f6121b0565b145b15611a945783611a9081612466565b9450505b50508080611aa190612466565b9150506119cd565b506001600160a01b0380841660009081526003602090815260408083206004549094168352929052205460ff16826002811115611ae857611ae86121b0565b816002811115611afa57611afa6121b0565b03611b1957611b07611857565b611b195781611b1581612466565b9250505b5092915050565b611b2b8160016119c9565b15611b895760405162461bcd60e51b815260206004820152602860248201527f41646d696e4d616e6167656d656e743a2048617665206d6f7265207468616e206044820152676f6e6520766f746560c01b6064820152608401610406565b60008054905b81811015611c8657826001600160a01b031660008281548110611bb457611bb461247f565b6000918252602090912001546001600160a01b031603611c74576000611bdb6001846124b7565b81548110611beb57611beb61247f565b600091825260208220015481546001600160a01b03909116919083908110611c1557611c1561247f565b6000918252602082200180546001600160a01b0319166001600160a01b039390931692909217909155805480611c4d57611c4d6124ce565b600082815260209020810160001990810180546001600160a01b0319169055019055611c86565b80611c7e81612466565b915050611b8f565b506001600160a01b0382166000818152600260209081526040808320805460ff19908116909155600190925280832080549092169091555133917f444f505ab0c0f008d43ec3581e2a30f082b10f8ad5408ca283dca907a1c48bf991a35050565b6001600160a01b0381166000908152600260205260409020805460ff19166001179055611d1381611efa565b6040516001600160a01b038216815233907fab3ba3498709d5cb31b14894bee15263f9cad71998ea67c0dddc5b560a79c9cc90602001611543565b6060600554821115611da25760405162461bcd60e51b815260206004820181905260248201527f41646d696e4d616e6167656d656e743a20496e76616c6964205f6f66665365746044820152606401610406565b600554611daf84846123d0565b1115611dc65781600554611dc391906124b7565b92505b8267ffffffffffffffff811115611ddf57611ddf611ff3565b604051908082528060200260200182016040528015611e1857816020015b611e05611f8a565b815260200190600190039081611dfd5790505b50905060005b83811015611b195760066000611e3483866123d0565b81526020808201929092526040908101600020815160c0810183528154815260018201546001600160a01b031693810193909352600280820154928401929092526003810154606084015260048101549091608084019160ff1690811115611e9e57611e9e6121b0565b6002811115611eaf57611eaf6121b0565b815260049190910154610100900460ff1615156020909101528251839083908110611edc57611edc61247f565b60200260200101819052508080611ef290612466565b915050611e1e565b60005b6000548110156105b3576001600160a01b038216600090815260036020526040812081548290819085908110611f3557611f3561247f565b60009182526020808320909101546001600160a01b031683528201929092526040019020805460ff19166001836002811115611f7357611f736121b0565b021790555080611f8281612466565b915050611efd565b6040518060c001604052806000815260200160006001600160a01b03168152602001600081526020016000815260200160006002811115611fcd57611fcd6121b0565b8152600060209091015290565b600060208284031215611fec57600080fd5b5035919050565b634e487b7160e01b600052604160045260246000fd5b80356001600160a01b038116811461202057600080fd5b919050565b60038110610eff57600080fd5b803561202081612025565b8035801515811461202057600080fd5b600060c0828403121561205f57600080fd5b60405160c0810181811067ffffffffffffffff8211171561209057634e487b7160e01b600052604160045260246000fd5b604052823581526120a360208401612009565b602082015260408301356040820152606083013560608201526120c860808401612032565b60808201526120d960a0840161203d565b60a08201529392505050565b6000602082840312156120f757600080fd5b61084682612009565b6000806040838503121561211357600080fd5b82359150602083013561212581612025565b809150509250929050565b6020808252825182820181905260009190848201906040850190845b818110156121715783516001600160a01b03168352928401929184019160010161214c565b50909695505050505050565b6000806040838503121561219057600080fd5b61219983612009565b91506121a760208401612009565b90509250929050565b634e487b7160e01b600052602160045260246000fd5b60038110610eff57634e487b7160e01b600052602160045260246000fd5b602081016121f1836121c6565b91905290565b6000806040838503121561220a57600080fd5b61221383612009565b9150602083013561212581612025565b6000806040838503121561223657600080fd5b50508035926020909101359150565b602080825282518282018190526000919060409081850190868401855b828110156122c457815180518552868101516001600160a01b0316878601528581015186860152606080820151908601526080808201516122a2816121c6565b9086015260a09081015115159085015260c09093019290850190600101612262565b5091979650505050505050565b6020808252601b908201527f41646d696e4d616e6167656d656e743a20496e76616c69642069640000000000604082015260600190565b6020808252601b908201527f41646d696e4d616e6167656d656e743a204f6e6c792061646d696e0000000000604082015260600190565b60208082526024908201527f41646d696e4d616e6167656d656e743a204e6f742064656661756c74207265716040820152631d595cdd60e21b606082015260800190565b6020808252601a908201527f41646d696e4d616e6167656d656e743a20666f7262696464656e000000000000604082015260600190565b634e487b7160e01b600052601160045260246000fd5b600082198211156123e3576123e36123ba565b500190565b6020808252601a908201527f41646d696e4d616e6167656d656e743a204e6f74206578697374000000000000604082015260600190565b60208082526027908201527f41646d696e4d616e6167656d656e743a204e6f7420656e6f756768205f61646d604082015266696e566f74657360c81b606082015260800190565b600060018201612478576124786123ba565b5060010190565b634e487b7160e01b600052603260045260246000fd5b6000826124b257634e487b7160e01b600052601260045260246000fd5b500490565b6000828210156124c9576124c96123ba565b500390565b634e487b7160e01b600052603160045260246000fdfea2646970667358221220ccc4e4913b6a88fafcf8fb23939c1d0b201ea40134b11a67b63070fbde2bb4fb64736f6c634300080d0033",
  "linkReferences": {},
  "deployedLinkReferences": {}
}