{
  "_format": "hh-sol-artifact-1",
  "contractName": "CampaignManagement",
  "sourceName": "contracts/CampaignManagement.sol",
  "abi": [
    {
      "inputs": [
        {
          "internalType": "address",
          "name": "adminManagement_",
          "type": "address"
        },
        {
          "internalType": "address",
          "name": "voteFactory_",
          "type": "address"
        },
        {
          "internalType": "address",
          "name": "ERC20Token_",
          "type": "address"
        }
      ],
      "stateMutability": "nonpayable",
      "type": "constructor"
    },
    {
      "anonymous": false,
      "inputs": [
        {
          "indexed": false,
          "internalType": "uint256",
          "name": "id",
          "type": "uint256"
        },
        {
          "indexed": true,
          "internalType": "address",
          "name": "requester",
          "type": "address"
        }
      ],
      "name": "Deleted",
      "type": "event"
    },
    {
      "anonymous": false,
      "inputs": [
        {
          "indexed": true,
          "internalType": "address",
          "name": "requester",
          "type": "address"
        },
        {
          "indexed": false,
          "internalType": "uint256",
          "name": "amount",
          "type": "uint256"
        }
      ],
      "name": "ERC20Claimed",
      "type": "event"
    },
    {
      "anonymous": false,
      "inputs": [
        {
          "indexed": false,
          "internalType": "uint256",
          "name": "id",
          "type": "uint256"
        },
        {
          "indexed": false,
          "internalType": "string",
          "name": "name",
          "type": "string"
        },
        {
          "indexed": true,
          "internalType": "address",
          "name": "createdBy",
          "type": "address"
        },
        {
          "indexed": false,
          "internalType": "uint256",
          "name": "createdAt",
          "type": "uint256"
        }
      ],
      "name": "NewRequest",
      "type": "event"
    },
    {
      "anonymous": false,
      "inputs": [
        {
          "indexed": false,
          "internalType": "uint256",
          "name": "id",
          "type": "uint256"
        },
        {
          "indexed": true,
          "internalType": "address",
          "name": "requester",
          "type": "address"
        }
      ],
      "name": "Released",
      "type": "event"
    },
    {
      "inputs": [],
      "name": "ERC20Token",
      "outputs": [
        {
          "internalType": "contract IERC20",
          "name": "",
          "type": "address"
        }
      ],
      "stateMutability": "view",
      "type": "function"
    },
    {
      "inputs": [],
      "name": "adminManagement",
      "outputs": [
        {
          "internalType": "contract IAdminManagement",
          "name": "",
          "type": "address"
        }
      ],
      "stateMutability": "view",
      "type": "function"
    },
    {
      "inputs": [],
      "name": "claimReward",
      "outputs": [],
      "stateMutability": "nonpayable",
      "type": "function"
    },
    {
      "inputs": [
        {
          "internalType": "uint256",
          "name": "id",
          "type": "uint256"
        }
      ],
      "name": "inactiveRequest",
      "outputs": [],
      "stateMutability": "nonpayable",
      "type": "function"
    },
    {
      "inputs": [
        {
          "internalType": "address",
          "name": "",
          "type": "address"
        }
      ],
      "name": "isParticipant",
      "outputs": [
        {
          "internalType": "bool",
          "name": "",
          "type": "bool"
        }
      ],
      "stateMutability": "view",
      "type": "function"
    },
    {
      "inputs": [
        {
          "internalType": "uint256",
          "name": "id",
          "type": "uint256"
        }
      ],
      "name": "release",
      "outputs": [],
      "stateMutability": "nonpayable",
      "type": "function"
    },
    {
      "inputs": [
        {
          "components": [
            {
              "internalType": "uint256",
              "name": "id",
              "type": "uint256"
            },
            {
              "internalType": "string",
              "name": "name",
              "type": "string"
            },
            {
              "components": [
                {
                  "internalType": "address",
                  "name": "account",
                  "type": "address"
                },
                {
                  "internalType": "uint256",
                  "name": "amount",
                  "type": "uint256"
                }
              ],
              "internalType": "struct ICampaignManagement.Participant[]",
              "name": "participants",
              "type": "tuple[]"
            },
            {
              "internalType": "enum RequestStatusEnum",
              "name": "status",
              "type": "uint8"
            },
            {
              "internalType": "address",
              "name": "createdBy",
              "type": "address"
            },
            {
              "internalType": "uint256",
              "name": "createdAt",
              "type": "uint256"
            }
          ],
          "internalType": "struct ICampaignManagement.Campaign",
          "name": "request",
          "type": "tuple"
        }
      ],
      "name": "requestNewCampaign",
      "outputs": [],
      "stateMutability": "nonpayable",
      "type": "function"
    },
    {
      "inputs": [],
      "name": "voteFactory",
      "outputs": [
        {
          "internalType": "contract IVoteFactory",
          "name": "",
          "type": "address"
        }
      ],
      "stateMutability": "view",
      "type": "function"
    }
  ],
  "bytecode": "0x6080604052600060025534801561001557600080fd5b5060405161121c38038061121c83398101604081905261003491610092565b600080546001600160a01b039485166001600160a01b0319918216179091556001805493851693821693909317909255600680549190931691161790556100d5565b80516001600160a01b038116811461008d57600080fd5b919050565b6000806000606084860312156100a757600080fd5b6100b084610076565b92506100be60208501610076565b91506100cc60408501610076565b90509250925092565b611138806100e46000396000f3fe608060405234801561001057600080fd5b50600436106100885760003560e01c8063929066f51161005b578063929066f5146100f8578063a83690061461012b578063b88a802f1461013e578063c806c3ed1461014657600080fd5b8063055899861461008d57806337bdc99b146100a257806361ef2b6c146100b55780637a80760e146100e5575b600080fd5b6100a061009b366004610c5a565b610159565b005b6100a06100b0366004610c5a565b610430565b6000546100c8906001600160a01b031681565b6040516001600160a01b0390911681526020015b60405180910390f35b6006546100c8906001600160a01b031681565b61011b610106366004610c8f565b60056020526000908152604090205460ff1681565b60405190151581526020016100dc565b6001546100c8906001600160a01b031681565b6100a0610808565b6100a0610154366004610e6e565b6109b5565b6000546001600160a01b03166324d7806c336040516001600160e01b031960e084901b1681526001600160a01b039091166004820152602401602060405180830381865afa1580156101af573d6000803e3d6000fd5b505050506040513d601f19601f820116820180604052508101906101d39190610f38565b6102245760405162461bcd60e51b815260206004820152601e60248201527f42617365497669727365436f6e74726163743a204f6e6c792061646d696e000060448201526064015b60405180910390fd5b7f7b4ce13e61af9ba37808b899e5b098f7e6956e97a2055a910e9b238e18240ce081600260008054906101000a90046001600160a01b03166001600160a01b0316631398a5f66040518163ffffffff1660e01b8152600401602060405180830381865afa158015610299573d6000803e3d6000fd5b505050506040513d601f19601f820116820180604052508101906102bd9190610f5a565b600154604051636d352b5b60e01b81526001600160a01b0390911690636d352b5b906102f190879087908790600401610f89565b602060405180830381865afa15801561030e573d6000803e3d6000fd5b505050506040513d601f19601f820116820180604052508101906103329190610f5a565b10156103505760405162461bcd60e51b815260040161021b90610fc3565b83600080828152600360208190526040909120015460ff16600281111561037957610379610f73565b146103c65760405162461bcd60e51b815260206004820152601f60248201527f43616d706169676e4d616e6167656d656e743a204e6f742064656661756c7400604482015260640161021b565b6000858152600360208190526040909120908101805460ff19166002179055336001600160a01b03167fbdfa951bad4bf2b0fd50f185e31e2dd8a65886d3c650d38151d30fcaabca46e88760405161042091815260200190565b60405180910390a2505050505050565b6000546001600160a01b03166324d7806c336040516001600160e01b031960e084901b1681526001600160a01b039091166004820152602401602060405180830381865afa158015610486573d6000803e3d6000fd5b505050506040513d601f19601f820116820180604052508101906104aa9190610f38565b6104f65760405162461bcd60e51b815260206004820152601e60248201527f42617365497669727365436f6e74726163743a204f6e6c792061646d696e0000604482015260640161021b565b7f7b4ce13e61af9ba37808b899e5b098f7e6956e97a2055a910e9b238e18240ce081600160008054906101000a90046001600160a01b03166001600160a01b0316631398a5f66040518163ffffffff1660e01b8152600401602060405180830381865afa15801561056b573d6000803e3d6000fd5b505050506040513d601f19601f8201168201806040525081019061058f9190610f5a565b600154604051636d352b5b60e01b81526001600160a01b0390911690636d352b5b906105c390879087908790600401610f89565b602060405180830381865afa1580156105e0573d6000803e3d6000fd5b505050506040513d601f19601f820116820180604052508101906106049190610f5a565b10156106225760405162461bcd60e51b815260040161021b90610fc3565b83600080828152600360208190526040909120015460ff16600281111561064b5761064b610f73565b146106985760405162461bcd60e51b815260206004820152601f60248201527f43616d706169676e4d616e6167656d656e743a204e6f742064656661756c7400604482015260640161021b565b6000858152600360208181526040808420928301805460ff191660011790556002830180548251818502810185019093528083529394939192909190849084015b82821015610721576000848152602090819020604080518082019091526002850290910180546001600160a01b031682526001908101548284015290835290920191016106d9565b50505050905060005b81518110156107c857600082828151811061074757610747611006565b6020026020010151905080602001516004600083600001516001600160a01b03166001600160a01b03168152602001908152602001600020600082825461078e9190611032565b9091555050516001600160a01b03166000908152600560205260409020805460ff19166001179055806107c08161104a565b91505061072a565b5060405187815233907f4d436de77f1139fda664b657c73ad6c3bde4a1984d3aabeab7c3998556b93b63906020015b60405180910390a250505050505050565b3360009081526005602052604090205460ff166108735760405162461bcd60e51b815260206004820152602360248201527f43616d706169676e4d616e6167656d656e743a204e6f74207061727469636970604482015262185b9d60ea1b606482015260840161021b565b6000336001600160a01b0381811660008181526004602081905260409182902054600654925163a9059cbb60e01b81529182019390935260248101839052939450909291169063a9059cbb906044016020604051808303816000875af11580156108e1573d6000803e3d6000fd5b505050506040513d601f19601f820116820180604052508101906109059190610f38565b61095c5760405162461bcd60e51b815260206004820152602260248201527f43616d706169676e4d616e6167656d656e743a205472616e73666572206661696044820152616c2160f01b606482015260840161021b565b6001600160a01b03821660008181526004602052604080822091909155517f34f51595ea5db411028ca10bf59eb3107ecded811cc4a60691f69e1f0f0d8bf0906109a99084815260200190565b60405180910390a25050565b6000546001600160a01b031663f7882c56336040516001600160e01b031960e084901b1681526001600160a01b039091166004820152602401602060405180830381865afa158015610a0b573d6000803e3d6000fd5b505050506040513d601f19601f82011682018060405250810190610a2f9190610f38565b610a895760405162461bcd60e51b815260206004820152602560248201527f42617365497669727365436f6e74726163743a204f6e6c79206d61737465722060448201526430b236b4b760d91b606482015260840161021b565b600254604082810151600083815260036020908152929020838155828501518051339442949392610ac39260018501929190910190610bc1565b506003810180546001600160a81b0319166101006001600160a01b03871602179055600481018390556002810160005b8351811015610b6a5781848281518110610b0f57610b0f611006565b602090810291909101810151825460018082018555600094855293839020825160029092020180546001600160a01b0319166001600160a01b0390921691909117815591015191015580610b628161104a565b915050610af3565b5060028054906000610b7b8361104a565b9190505550846001600160a01b03167fc2ac6e3b10568117504ff010cc04310feb3969e258afba8a61d8647d3cea24a4878960200151876040516107f793929190611063565b828054610bcd906110c8565b90600052602060002090601f016020900481019282610bef5760008555610c35565b82601f10610c0857805160ff1916838001178555610c35565b82800160010185558215610c35579182015b82811115610c35578251825591602001919060010190610c1a565b50610c41929150610c45565b5090565b5b80821115610c415760008155600101610c46565b600060208284031215610c6c57600080fd5b5035919050565b80356001600160a01b0381168114610c8a57600080fd5b919050565b600060208284031215610ca157600080fd5b610caa82610c73565b9392505050565b634e487b7160e01b600052604160045260246000fd5b6040805190810167ffffffffffffffff81118282101715610cea57610cea610cb1565b60405290565b60405160c0810167ffffffffffffffff81118282101715610cea57610cea610cb1565b604051601f8201601f1916810167ffffffffffffffff81118282101715610d3c57610d3c610cb1565b604052919050565b600082601f830112610d5557600080fd5b813567ffffffffffffffff811115610d6f57610d6f610cb1565b610d82601f8201601f1916602001610d13565b818152846020838601011115610d9757600080fd5b816020850160208301376000918101602001919091529392505050565b600082601f830112610dc557600080fd5b8135602067ffffffffffffffff821115610de157610de1610cb1565b610def818360051b01610d13565b82815260069290921b84018101918181019086841115610e0e57600080fd5b8286015b84811015610e545760408189031215610e2b5760008081fd5b610e33610cc7565b610e3c82610c73565b81528185013585820152835291830191604001610e12565b509695505050505050565b803560038110610c8a57600080fd5b600060208284031215610e8057600080fd5b813567ffffffffffffffff80821115610e9857600080fd5b9083019060c08286031215610eac57600080fd5b610eb4610cf0565b82358152602083013582811115610eca57600080fd5b610ed687828601610d44565b602083015250604083013582811115610eee57600080fd5b610efa87828601610db4565b604083015250610f0c60608401610e5f565b6060820152610f1d60808401610c73565b608082015260a083013560a082015280935050505092915050565b600060208284031215610f4a57600080fd5b81518015158114610caa57600080fd5b600060208284031215610f6c57600080fd5b5051919050565b634e487b7160e01b600052602160045260246000fd5b838152602081018390526060810160038310610fb557634e487b7160e01b600052602160045260246000fd5b826040830152949350505050565b60208082526023908201527f42617365497669727365436f6e74726163743a204e6f7420656e6f75676820766040820152626f746560e81b606082015260800190565b634e487b7160e01b600052603260045260246000fd5b634e487b7160e01b600052601160045260246000fd5b600082198211156110455761104561101c565b500190565b60006001820161105c5761105c61101c565b5060010190565b83815260006020606081840152845180606085015260005b818110156110975786810183015185820160800152820161107b565b818111156110a9576000608083870101525b5060408401949094525050601f91909101601f19160160800192915050565b600181811c908216806110dc57607f821691505b6020821081036110fc57634e487b7160e01b600052602260045260246000fd5b5091905056fea26469706673582212203edabb34a9bf398a0b053cc4a30ff6b5a08d52ccca8c2f02f96912da2684a3f664736f6c634300080d0033",
  "linkReferences": {},
  "deployedLinkReferences": {}
}