{
  "_format": "hh-sol-artifact-1",
  "contractName": "VoteFactory",
  "sourceName": "contracts/VoteFactory.sol",
  "abi": [
    {
      "inputs": [
        {
          "internalType": "address",
          "name": "adminManagement_",
          "type": "address"
        }
      ],
      "stateMutability": "nonpayable",
      "type": "constructor"
    },
    {
      "anonymous": false,
      "inputs": [
        {
          "indexed": true,
          "internalType": "bytes32",
          "name": "action",
          "type": "bytes32"
        },
        {
          "indexed": false,
          "internalType": "address",
          "name": "requester",
          "type": "address"
        },
        {
          "indexed": false,
          "internalType": "uint256",
          "name": "id",
          "type": "uint256"
        }
      ],
      "name": "Acception",
      "type": "event"
    },
    {
      "anonymous": false,
      "inputs": [
        {
          "indexed": true,
          "internalType": "bytes32",
          "name": "action",
          "type": "bytes32"
        },
        {
          "indexed": false,
          "internalType": "address",
          "name": "requester",
          "type": "address"
        },
        {
          "indexed": false,
          "internalType": "uint256",
          "name": "id",
          "type": "uint256"
        }
      ],
      "name": "Rejection",
      "type": "event"
    },
    {
      "inputs": [
        {
          "internalType": "bytes32",
          "name": "action",
          "type": "bytes32"
        },
        {
          "internalType": "uint256",
          "name": "id",
          "type": "uint256"
        }
      ],
      "name": "accept",
      "outputs": [],
      "stateMutability": "nonpayable",
      "type": "function"
    },
    {
      "inputs": [
        {
          "internalType": "bytes32",
          "name": "action",
          "type": "bytes32"
        },
        {
          "internalType": "uint256",
          "name": "id",
          "type": "uint256"
        },
        {
          "internalType": "enum VoteEnum",
          "name": "voteType",
          "type": "uint8"
        }
      ],
      "name": "getTotalVote",
      "outputs": [
        {
          "internalType": "uint256",
          "name": "count",
          "type": "uint256"
        }
      ],
      "stateMutability": "view",
      "type": "function"
    },
    {
      "inputs": [
        {
          "internalType": "bytes32",
          "name": "action",
          "type": "bytes32"
        },
        {
          "internalType": "uint256",
          "name": "id",
          "type": "uint256"
        }
      ],
      "name": "reject",
      "outputs": [],
      "stateMutability": "nonpayable",
      "type": "function"
    }
  ],
  "bytecode": "0x608060405234801561001057600080fd5b50604051610a4d380380610a4d83398101604081905261002f91610054565b600180546001600160a01b0319166001600160a01b0392909216919091179055610084565b60006020828403121561006657600080fd5b81516001600160a01b038116811461007d57600080fd5b9392505050565b6109ba806100936000396000f3fe608060405234801561001057600080fd5b50600436106100415760003560e01c80636b6856df146100465780636d352b5b1461005b5780639d14cb6414610080575b600080fd5b61005961005436600461076e565b610093565b005b61006e6100693660046107a0565b6102c5565b60405190815260200160405180910390f35b61005961008e36600461076e565b61054c565b600033600154604051637bc4162b60e11b81526001600160a01b03808416600483015292935091169063f7882c5690602401602060405180830381865afa1580156100e2573d6000803e3d6000fd5b505050506040513d601f19601f8201168201806040525081019061010691906107d9565b8061018e5750600180546040516318bdfd4d60e31b81526001600160a01b0384811660048301529091169063c5efea6890602401602060405180830381865afa158015610157573d6000803e3d6000fd5b505050506040513d601f19601f8201168201806040525081019061017b9190610818565b600281111561018c5761018c610802565b145b6101d85760405162461bcd60e51b81526020600482015260166024820152752b37ba32a330b1ba37b93c9d103337b93134b23232b760511b60448201526064015b60405180910390fd5b60008381526020818152604080832085845282528083203384529091529020548390839060029060ff168181111561021257610212610802565b036102575760405162461bcd60e51b8152602060048201526015602482015274159bdd19519858dd1bdc9e4e881c995a9958dd1959605a1b60448201526064016101cf565b60008581526020818152604080832087845282528083203380855290835292819020805460ff19166002179055805183815291820187905287917fa1c8b2bc07953b2b7d1b7da76732ccc747555a4871469ff4d647b9f7b56abba791015b60405180910390a2505050505050565b600080600160009054906101000a90046001600160a01b03166001600160a01b03166331a364246040518163ffffffff1660e01b8152600401600060405180830381865afa15801561031b573d6000803e3d6000fd5b505050506040513d6000823e601f3d908101601f191682016040526103439190810190610867565b905060005b81518110156103ec5760008282815181106103655761036561092c565b602090810291909101810151600089815280835260408082208a835284528082206001600160a01b0384168352909352919091205490915060ff168560028111156103b2576103b2610802565b8160028111156103c4576103c4610802565b036103d757846103d381610942565b9550505b505080806103e490610942565b915050610348565b5060015460408051633511455d60e11b815290516000926001600160a01b031691636a228aba9160048083019260209291908290030181865afa158015610437573d6000803e3d6000fd5b505050506040513d601f19601f8201168201806040525081019061045b9190610969565b90506000600160009054906101000a90046001600160a01b03166001600160a01b0316639617d5cd6040518163ffffffff1660e01b8152600401602060405180830381865afa1580156104b2573d6000803e3d6000fd5b505050506040513d601f19601f820116820180604052508101906104d691906107d9565b6000888152602081815260408083208a845282528083206001600160a01b038716845290915290205490915060ff1685600281111561051757610517610802565b81600281111561052957610529610802565b036105415781610541578461053d81610942565b9550505b505050509392505050565b600033600154604051637bc4162b60e11b81526001600160a01b03808416600483015292935091169063f7882c5690602401602060405180830381865afa15801561059b573d6000803e3d6000fd5b505050506040513d601f19601f820116820180604052508101906105bf91906107d9565b806106475750600180546040516318bdfd4d60e31b81526001600160a01b0384811660048301529091169063c5efea6890602401602060405180830381865afa158015610610573d6000803e3d6000fd5b505050506040513d601f19601f820116820180604052508101906106349190610818565b600281111561064557610645610802565b145b61068c5760405162461bcd60e51b81526020600482015260166024820152752b37ba32a330b1ba37b93c9d103337b93134b23232b760511b60448201526064016101cf565b60008381526020818152604080832085845282528083203384529091529020548390839060019060ff1660028111156106c7576106c7610802565b0361070c5760405162461bcd60e51b8152602060048201526015602482015274159bdd19519858dd1bdc9e4e881858d8d95c1d1959605a1b60448201526064016101cf565b60008581526020818152604080832087845282528083203380855290835292819020805460ff19166001179055805183815291820187905287917f98b982bc87787fdecb7c54e41beff1cc2d301c1913a25386760cb6aca8e9ce2391016102b5565b6000806040838503121561078157600080fd5b50508035926020909101359150565b6003811061079d57600080fd5b50565b6000806000606084860312156107b557600080fd5b833592506020840135915060408401356107ce81610790565b809150509250925092565b6000602082840312156107eb57600080fd5b815180151581146107fb57600080fd5b9392505050565b634e487b7160e01b600052602160045260246000fd5b60006020828403121561082a57600080fd5b81516107fb81610790565b634e487b7160e01b600052604160045260246000fd5b80516001600160a01b038116811461086257600080fd5b919050565b6000602080838503121561087a57600080fd5b825167ffffffffffffffff8082111561089257600080fd5b818501915085601f8301126108a657600080fd5b8151818111156108b8576108b8610835565b8060051b604051601f19603f830116810181811085821117156108dd576108dd610835565b6040529182528482019250838101850191888311156108fb57600080fd5b938501935b82851015610920576109118561084b565b84529385019392850192610900565b98975050505050505050565b634e487b7160e01b600052603260045260246000fd5b60006001820161096257634e487b7160e01b600052601160045260246000fd5b5060010190565b60006020828403121561097b57600080fd5b6107fb8261084b56fea264697066735822122057fdb4ea5981f15f3da09ccec2648a7846d171545852886a0a3ffdf4efde606264736f6c634300080d0033",
  "linkReferences": {},
  "deployedLinkReferences": {}
}