{
  "contractName": "TokenManagement",
  "abi": [
    {
      "inputs": [],
      "stateMutability": "nonpayable",
      "type": "constructor"
    },
    {
      "anonymous": false,
      "inputs": [
        {
          "indexed": true,
          "internalType": "address",
          "name": "from",
          "type": "address"
        },
        {
          "indexed": true,
          "internalType": "address",
          "name": "to",
          "type": "address"
        }
      ],
      "name": "AcceptGrant",
      "type": "event"
    },
    {
      "anonymous": false,
      "inputs": [
        {
          "indexed": true,
          "internalType": "address",
          "name": "requester",
          "type": "address"
        },
        {
          "indexed": false,
          "internalType": "uint256",
          "name": "id",
          "type": "uint256"
        }
      ],
      "name": "AcceptTransfer",
      "type": "event"
    },
    {
      "anonymous": false,
      "inputs": [
        {
          "indexed": true,
          "internalType": "address",
          "name": "account",
          "type": "address"
        }
      ],
      "name": "GrantOwnership",
      "type": "event"
    },
    {
      "anonymous": false,
      "inputs": [
        {
          "indexed": false,
          "internalType": "uint8",
          "name": "version",
          "type": "uint8"
        }
      ],
      "name": "Initialized",
      "type": "event"
    },
    {
      "anonymous": false,
      "inputs": [
        {
          "indexed": true,
          "internalType": "address",
          "name": "account",
          "type": "address"
        }
      ],
      "name": "NewAccount",
      "type": "event"
    },
    {
      "anonymous": false,
      "inputs": [
        {
          "indexed": false,
          "internalType": "uint256",
          "name": "id",
          "type": "uint256"
        },
        {
          "indexed": false,
          "internalType": "uint256",
          "name": "createdAt",
          "type": "uint256"
        },
        {
          "indexed": true,
          "internalType": "address",
          "name": "requestBy",
          "type": "address"
        },
        {
          "indexed": true,
          "internalType": "address",
          "name": "to",
          "type": "address"
        },
        {
          "indexed": false,
          "internalType": "uint256",
          "name": "amount",
          "type": "uint256"
        }
      ],
      "name": "NewTransfer",
      "type": "event"
    },
    {
      "anonymous": false,
      "inputs": [
        {
          "indexed": true,
          "internalType": "address",
          "name": "requester",
          "type": "address"
        },
        {
          "indexed": false,
          "internalType": "uint256",
          "name": "id",
          "type": "uint256"
        }
      ],
      "name": "NewTransfer",
      "type": "event"
    },
    {
      "anonymous": false,
      "inputs": [
        {
          "indexed": true,
          "internalType": "address",
          "name": "from",
          "type": "address"
        },
        {
          "indexed": true,
          "internalType": "address",
          "name": "to",
          "type": "address"
        }
      ],
      "name": "RejectGrant",
      "type": "event"
    },
    {
      "anonymous": false,
      "inputs": [
        {
          "indexed": true,
          "internalType": "address",
          "name": "requester",
          "type": "address"
        },
        {
          "indexed": false,
          "internalType": "uint256",
          "name": "id",
          "type": "uint256"
        }
      ],
      "name": "RejectTransfer",
      "type": "event"
    },
    {
      "anonymous": false,
      "inputs": [
        {
          "indexed": true,
          "internalType": "address",
          "name": "from",
          "type": "address"
        },
        {
          "indexed": true,
          "internalType": "address",
          "name": "to",
          "type": "address"
        }
      ],
      "name": "RemoveAccount",
      "type": "event"
    },
    {
      "anonymous": false,
      "inputs": [
        {
          "indexed": true,
          "internalType": "address",
          "name": "owner",
          "type": "address"
        }
      ],
      "name": "RevokeOwnership",
      "type": "event"
    },
    {
      "anonymous": false,
      "inputs": [
        {
          "indexed": true,
          "internalType": "address",
          "name": "requester",
          "type": "address"
        },
        {
          "indexed": false,
          "internalType": "uint256",
          "name": "id",
          "type": "uint256"
        }
      ],
      "name": "Transfer",
      "type": "event"
    },
    {
      "inputs": [],
      "name": "ERC20TOKEN",
      "outputs": [
        {
          "internalType": "contract IERC20",
          "name": "",
          "type": "address"
        }
      ],
      "stateMutability": "view",
      "type": "function"
    },
    {
      "inputs": [],
      "name": "MAX_OWNER_COUNT",
      "outputs": [
        {
          "internalType": "uint256",
          "name": "",
          "type": "uint256"
        }
      ],
      "stateMutability": "view",
      "type": "function"
    },
    {
      "inputs": [
        {
          "internalType": "address",
          "name": "account",
          "type": "address"
        }
      ],
      "name": "acceptAccount",
      "outputs": [],
      "stateMutability": "nonpayable",
      "type": "function"
    },
    {
      "inputs": [],
      "name": "getAllOwner",
      "outputs": [
        {
          "internalType": "address[]",
          "name": "",
          "type": "address[]"
        }
      ],
      "stateMutability": "view",
      "type": "function"
    },
    {
      "inputs": [
        {
          "internalType": "address",
          "name": "account",
          "type": "address"
        }
      ],
      "name": "getNumberVote",
      "outputs": [
        {
          "internalType": "uint256",
          "name": "",
          "type": "uint256"
        }
      ],
      "stateMutability": "view",
      "type": "function"
    },
    {
      "inputs": [],
      "name": "getRequired",
      "outputs": [
        {
          "internalType": "uint256",
          "name": "",
          "type": "uint256"
        }
      ],
      "stateMutability": "view",
      "type": "function"
    },
    {
      "inputs": [
        {
          "internalType": "address",
          "name": "account",
          "type": "address"
        },
        {
          "internalType": "address",
          "name": "owner",
          "type": "address"
        }
      ],
      "name": "getVote",
      "outputs": [
        {
          "internalType": "bool",
          "name": "",
          "type": "bool"
        }
      ],
      "stateMutability": "view",
      "type": "function"
    },
    {
      "inputs": [
        {
          "internalType": "address",
          "name": "account",
          "type": "address"
        }
      ],
      "name": "grantOwnership",
      "outputs": [],
      "stateMutability": "nonpayable",
      "type": "function"
    },
    {
      "inputs": [
        {
          "internalType": "address",
          "name": "",
          "type": "address"
        }
      ],
      "name": "isExist",
      "outputs": [
        {
          "internalType": "bool",
          "name": "",
          "type": "bool"
        }
      ],
      "stateMutability": "view",
      "type": "function"
    },
    {
      "inputs": [
        {
          "internalType": "address",
          "name": "",
          "type": "address"
        }
      ],
      "name": "isOwner",
      "outputs": [
        {
          "internalType": "enum IAutomaticOwnershipManagement.Status",
          "name": "",
          "type": "uint8"
        }
      ],
      "stateMutability": "view",
      "type": "function"
    },
    {
      "inputs": [
        {
          "internalType": "uint256",
          "name": "",
          "type": "uint256"
        }
      ],
      "name": "owners",
      "outputs": [
        {
          "internalType": "address",
          "name": "",
          "type": "address"
        }
      ],
      "stateMutability": "view",
      "type": "function"
    },
    {
      "inputs": [
        {
          "internalType": "address",
          "name": "account",
          "type": "address"
        }
      ],
      "name": "rejectAccount",
      "outputs": [],
      "stateMutability": "nonpayable",
      "type": "function"
    },
    {
      "inputs": [
        {
          "internalType": "address",
          "name": "account",
          "type": "address"
        }
      ],
      "name": "removeAccount",
      "outputs": [],
      "stateMutability": "nonpayable",
      "type": "function"
    },
    {
      "inputs": [],
      "name": "renounceOwnership",
      "outputs": [],
      "stateMutability": "nonpayable",
      "type": "function"
    },
    {
      "inputs": [
        {
          "internalType": "address",
          "name": "account",
          "type": "address"
        }
      ],
      "name": "requestNewOwner",
      "outputs": [],
      "stateMutability": "nonpayable",
      "type": "function"
    },
    {
      "inputs": [
        {
          "internalType": "address",
          "name": "owner",
          "type": "address"
        }
      ],
      "name": "revokeOwnership",
      "outputs": [],
      "stateMutability": "nonpayable",
      "type": "function"
    },
    {
      "inputs": [],
      "name": "transferCount",
      "outputs": [
        {
          "internalType": "uint256",
          "name": "",
          "type": "uint256"
        }
      ],
      "stateMutability": "view",
      "type": "function"
    },
    {
      "inputs": [
        {
          "internalType": "uint256",
          "name": "",
          "type": "uint256"
        },
        {
          "internalType": "address",
          "name": "",
          "type": "address"
        }
      ],
      "name": "transferVotes",
      "outputs": [
        {
          "internalType": "bool",
          "name": "",
          "type": "bool"
        }
      ],
      "stateMutability": "view",
      "type": "function"
    },
    {
      "inputs": [
        {
          "internalType": "address",
          "name": "",
          "type": "address"
        },
        {
          "internalType": "address",
          "name": "",
          "type": "address"
        }
      ],
      "name": "votes",
      "outputs": [
        {
          "internalType": "bool",
          "name": "",
          "type": "bool"
        }
      ],
      "stateMutability": "view",
      "type": "function"
    },
    {
      "inputs": [
        {
          "internalType": "contract IERC20",
          "name": "ERC20TOKEN_",
          "type": "address"
        },
        {
          "internalType": "address[]",
          "name": "initialOwners_",
          "type": "address[]"
        }
      ],
      "name": "initialize",
      "outputs": [],
      "stateMutability": "nonpayable",
      "type": "function"
    },
    {
      "inputs": [
        {
          "internalType": "address",
          "name": "to",
          "type": "address"
        },
        {
          "internalType": "uint256",
          "name": "amount",
          "type": "uint256"
        }
      ],
      "name": "requestNewTransfer",
      "outputs": [],
      "stateMutability": "nonpayable",
      "type": "function"
    },
    {
      "inputs": [
        {
          "internalType": "uint256",
          "name": "id",
          "type": "uint256"
        }
      ],
      "name": "acceptTransfer",
      "outputs": [],
      "stateMutability": "nonpayable",
      "type": "function"
    },
    {
      "inputs": [
        {
          "internalType": "uint256",
          "name": "id",
          "type": "uint256"
        }
      ],
      "name": "rejectTransfer",
      "outputs": [],
      "stateMutability": "nonpayable",
      "type": "function"
    },
    {
      "inputs": [
        {
          "internalType": "uint256",
          "name": "id",
          "type": "uint256"
        }
      ],
      "name": "transfer",
      "outputs": [],
      "stateMutability": "nonpayable",
      "type": "function"
    },
    {
      "inputs": [
        {
          "internalType": "address",
          "name": "to",
          "type": "address"
        },
        {
          "internalType": "uint256",
          "name": "amount",
          "type": "uint256"
        }
      ],
      "name": "forceTransfer",
      "outputs": [],
      "stateMutability": "nonpayable",
      "type": "function"
    },
    {
      "inputs": [
        {
          "internalType": "uint256",
          "name": "id",
          "type": "uint256"
        },
        {
          "internalType": "address",
          "name": "account",
          "type": "address"
        }
      ],
      "name": "getAccountVote",
      "outputs": [
        {
          "internalType": "bool",
          "name": "",
          "type": "bool"
        }
      ],
      "stateMutability": "view",
      "type": "function"
    },
    {
      "inputs": [
        {
          "internalType": "uint256",
          "name": "id",
          "type": "uint256"
        }
      ],
      "name": "getTransferVoteCount",
      "outputs": [
        {
          "internalType": "uint256",
          "name": "",
          "type": "uint256"
        }
      ],
      "stateMutability": "view",
      "type": "function"
    },
    {
      "inputs": [
        {
          "internalType": "uint256",
          "name": "offset",
          "type": "uint256"
        },
        {
          "internalType": "uint256",
          "name": "length",
          "type": "uint256"
        }
      ],
      "name": "getPagingTransferData",
      "outputs": [
        {
          "components": [
            {
              "internalType": "uint256",
              "name": "id",
              "type": "uint256"
            },
            {
              "internalType": "uint256",
              "name": "createdAt",
              "type": "uint256"
            },
            {
              "internalType": "address",
              "name": "requestBy",
              "type": "address"
            },
            {
              "internalType": "address",
              "name": "to",
              "type": "address"
            },
            {
              "internalType": "uint256",
              "name": "amount",
              "type": "uint256"
            },
            {
              "internalType": "bool",
              "name": "used",
              "type": "bool"
            }
          ],
          "internalType": "struct ITokenManagement.TransferData[]",
          "name": "",
          "type": "tuple[]"
        }
      ],
      "stateMutability": "view",
      "type": "function"
    },
    {
      "inputs": [],
      "name": "getAllTransferData",
      "outputs": [
        {
          "components": [
            {
              "internalType": "uint256",
              "name": "id",
              "type": "uint256"
            },
            {
              "internalType": "uint256",
              "name": "createdAt",
              "type": "uint256"
            },
            {
              "internalType": "address",
              "name": "requestBy",
              "type": "address"
            },
            {
              "internalType": "address",
              "name": "to",
              "type": "address"
            },
            {
              "internalType": "uint256",
              "name": "amount",
              "type": "uint256"
            },
            {
              "internalType": "bool",
              "name": "used",
              "type": "bool"
            }
          ],
          "internalType": "struct ITokenManagement.TransferData[]",
          "name": "",
          "type": "tuple[]"
        }
      ],
      "stateMutability": "view",
      "type": "function"
    },
    {
      "inputs": [
        {
          "internalType": "uint256",
          "name": "_id",
          "type": "uint256"
        }
      ],
      "name": "_getTransferVoteCount",
      "outputs": [
        {
          "internalType": "uint256",
          "name": "count",
          "type": "uint256"
        }
      ],
      "stateMutability": "view",
      "type": "function"
    }
  ],
  "bytecode": "0x60806040523480156200001157600080fd5b50620000226200002860201b60201c565b620001d3565b600060019054906101000a900460ff16156200007b576040517f08c379a0000000000000000000000000000000000000000000000000000000008152600401620000729062000176565b60405180910390fd5b60ff801660008054906101000a900460ff1660ff161015620000ed5760ff6000806101000a81548160ff021916908360ff1602179055507f7f26b83ff96e1f2b6a682f133852f6798a09c465da95921460cefb384740249860ff604051620000e49190620001b6565b60405180910390a15b565b600082825260208201905092915050565b7f496e697469616c697a61626c653a20636f6e747261637420697320696e69746960008201527f616c697a696e6700000000000000000000000000000000000000000000000000602082015250565b60006200015e602783620000ef565b91506200016b8262000100565b604082019050919050565b6000602082019050818103600083015262000191816200014f565b9050919050565b600060ff82169050919050565b620001b08162000198565b82525050565b6000602082019050620001cd6000830184620001a5565b92915050565b614aa180620001e36000396000f3fe608060405234801561001057600080fd5b50600436106101d95760003560e01c806383cfbd7f11610104578063c4740a95116100a2578063d44641af11610071578063d44641af14610586578063d74f8edd146105a4578063e3d33fc9146105c2578063ffb0885d146105e0576101d9565b8063c4740a95146104ee578063c6e1c6651461050a578063cad1b90614610526578063d249d78d14610556576101d9565b8063a3805e44116100de578063a3805e4414610468578063acfd82f214610486578063b6fad785146104a2578063bccf2ceb146104d2576101d9565b806383cfbd7f146104125780638d05a6381461042e578063946d92041461044c576101d9565b8063274fae7c1161017c57806370bc3e271161014b57806370bc3e2714610378578063715018a6146103a857806378ec0a1e146103b25780637a82e36c146103e2576101d9565b8063274fae7c146102cc5780632f54bf6e146102e85780634a716adf146103185780635ab4f16214610348576101d9565b806312514bba116101b857806312514bba1461025a57806312effc32146102765780631398a5f6146102925780631a3d9329146102b0576101d9565b806213eb4b146101de578063025e7c271461020e5780630ea115a81461023e575b600080fd5b6101f860048036038101906101f39190613739565b6105fc565b6040516102059190613781565b60405180910390f35b610228600480360381019061022391906137d2565b61061c565b604051610235919061380e565b60405180910390f35b61025860048036038101906102539190613739565b61065b565b005b610274600480360381019061026f91906137d2565b610882565b005b610290600480360381019061028b91906137d2565b610b4c565b005b61029a610d79565b6040516102a79190613838565b60405180910390f35b6102ca60048036038101906102c59190613739565b610d88565b005b6102e660048036038101906102e191906137d2565b610f32565b005b61030260048036038101906102fd9190613739565b611160565b60405161030f91906138ca565b60405180910390f35b610332600480360381019061032d91906138e5565b611180565b60405161033f9190613781565b60405180910390f35b610362600480360381019061035d9190613925565b6111af565b60405161036f9190613781565b60405180910390f35b610392600480360381019061038d9190613739565b611243565b60405161039f9190613838565b60405180910390f35b6103b0611255565b005b6103cc60048036038101906103c791906138e5565b611369565b6040516103d99190613781565b60405180910390f35b6103fc60048036038101906103f79190613965565b6113d1565b6040516104099190613afc565b60405180910390f35b61042c60048036038101906104279190613739565b6113e5565b005b6104366115c3565b6040516104439190613bcd565b60405180910390f35b61046660048036038101906104619190613d86565b611651565b005b6104706117db565b60405161047d9190613afc565b60405180910390f35b6104a0600480360381019061049b9190613739565b6117ef565b005b6104bc60048036038101906104b791906137d2565b611ac4565b6040516104c99190613838565b60405180910390f35b6104ec60048036038101906104e79190613de2565b611c2a565b005b61050860048036038101906105039190613739565b611ea5565b005b610524600480360381019061051f9190613739565b61209a565b005b610540600480360381019061053b9190613925565b6122c0565b60405161054d9190613781565b60405180910390f35b610570600480360381019061056b91906137d2565b6122ef565b60405161057d9190613838565b60405180910390f35b61058e612301565b60405161059b9190613e81565b60405180910390f35b6105ac612327565b6040516105b99190613838565b60405180910390f35b6105ca61232c565b6040516105d79190613838565b60405180910390f35b6105fa60048036038101906105f59190613de2565b612332565b005b60346020528060005260406000206000915054906101000a900460ff1681565b6033818154811061062c57600080fd5b906000526020600020016000915054906101000a900473ffffffffffffffffffffffffffffffffffffffff1681565b80603460008273ffffffffffffffffffffffffffffffffffffffff1673ffffffffffffffffffffffffffffffffffffffff16815260200190815260200160002060009054906101000a900460ff166106e8576040517f08c379a00000000000000000000000000000000000000000000000000000000081526004016106df90613ef9565b60405180910390fd5b81603660008273ffffffffffffffffffffffffffffffffffffffff1673ffffffffffffffffffffffffffffffffffffffff16815260200190815260200160002060006107326126a7565b73ffffffffffffffffffffffffffffffffffffffff1673ffffffffffffffffffffffffffffffffffffffff16815260200190815260200160002060009054906101000a900460ff16156107ba576040517f08c379a00000000000000000000000000000000000000000000000000000000081526004016107b190613f65565b60405180910390fd5b600160028111156107ce576107cd613853565b5b603560006107da6126a7565b73ffffffffffffffffffffffffffffffffffffffff1673ffffffffffffffffffffffffffffffffffffffff16815260200190815260200160002060009054906101000a900460ff16600281111561083457610833613853565b5b14610874576040517f08c379a000000000000000000000000000000000000000000000000000000000815260040161086b90613ff7565b60405180910390fd5b61087d836126af565b505050565b6001600281111561089657610895613853565b5b603560006108a26126a7565b73ffffffffffffffffffffffffffffffffffffffff1673ffffffffffffffffffffffffffffffffffffffff16815260200190815260200160002060009054906101000a900460ff1660028111156108fc576108fb613853565b5b1461093c576040517f08c379a000000000000000000000000000000000000000000000000000000000815260040161093390613ff7565b60405180910390fd5b806109456127ae565b61094e82611ac4565b101561098f576040517f08c379a000000000000000000000000000000000000000000000000000000000815260040161098690614089565b60405180910390fd5b816069600082815260200190815260200160002060050160009054906101000a900460ff16156109f4576040517f08c379a00000000000000000000000000000000000000000000000000000000081526004016109eb9061411b565b60405180910390fd5b600060696000858152602001908152602001600020905060018160050160006101000a81548160ff021916908315150217905550606760009054906101000a900473ffffffffffffffffffffffffffffffffffffffff1673ffffffffffffffffffffffffffffffffffffffff1663a9059cbb8260030160009054906101000a900473ffffffffffffffffffffffffffffffffffffffff1683600401546040518363ffffffff1660e01b8152600401610aad92919061413b565b6020604051808303816000875af1158015610acc573d6000803e3d6000fd5b505050506040513d601f19601f82011682018060405250810190610af09190614190565b50610af96126a7565b73ffffffffffffffffffffffffffffffffffffffff167f69ca02dd4edd7bf0a4abb9ed3b7af3f14778db5d61921c7dc7cd545266326de285604051610b3e9190613838565b60405180910390a250505050565b60016002811115610b6057610b5f613853565b5b60356000610b6c6126a7565b73ffffffffffffffffffffffffffffffffffffffff1673ffffffffffffffffffffffffffffffffffffffff16815260200190815260200160002060009054906101000a900460ff166002811115610bc657610bc5613853565b5b14610c06576040517f08c379a0000000000000000000000000000000000000000000000000000000008152600401610bfd90613ff7565b60405180910390fd5b806000610c116126a7565b9050606a600083815260200190815260200160002060008273ffffffffffffffffffffffffffffffffffffffff1673ffffffffffffffffffffffffffffffffffffffff16815260200190815260200160002060009054906101000a900460ff16610cb0576040517f08c379a0000000000000000000000000000000000000000000000000000000008152600401610ca79061422f565b60405180910390fd5b6000610cba6126a7565b90506000606a600086815260200190815260200160002060008373ffffffffffffffffffffffffffffffffffffffff1673ffffffffffffffffffffffffffffffffffffffff16815260200190815260200160002060006101000a81548160ff0219169083151502179055508073ffffffffffffffffffffffffffffffffffffffff167f6daf90dec5f1dd79df5ea3234b787bf28a49deb830139d36a9a4337b0ac48aa785604051610d6b9190613838565b60405180910390a250505050565b6000610d836127ae565b905090565b60016002811115610d9c57610d9b613853565b5b60356000610da86126a7565b73ffffffffffffffffffffffffffffffffffffffff1673ffffffffffffffffffffffffffffffffffffffff16815260200190815260200160002060009054906101000a900460ff166002811115610e0257610e01613853565b5b14610e42576040517f08c379a0000000000000000000000000000000000000000000000000000000008152600401610e3990613ff7565b60405180910390fd5b80603460008273ffffffffffffffffffffffffffffffffffffffff1673ffffffffffffffffffffffffffffffffffffffff16815260200190815260200160002060009054906101000a900460ff1615610ed0576040517f08c379a0000000000000000000000000000000000000000000000000000000008152600401610ec7906142c1565b60405180910390fd5b60326001603380549050610ee49190614310565b1115610f25576040517f08c379a0000000000000000000000000000000000000000000000000000000008152600401610f1c906143d8565b60405180910390fd5b610f2e826128d5565b5050565b60016002811115610f4657610f45613853565b5b60356000610f526126a7565b73ffffffffffffffffffffffffffffffffffffffff1673ffffffffffffffffffffffffffffffffffffffff16815260200190815260200160002060009054906101000a900460ff166002811115610fac57610fab613853565b5b14610fec576040517f08c379a0000000000000000000000000000000000000000000000000000000008152600401610fe390613ff7565b60405180910390fd5b806000610ff76126a7565b9050606a600083815260200190815260200160002060008273ffffffffffffffffffffffffffffffffffffffff1673ffffffffffffffffffffffffffffffffffffffff16815260200190815260200160002060009054906101000a900460ff1615611097576040517f08c379a000000000000000000000000000000000000000000000000000000000815260040161108e9061446a565b60405180910390fd5b60006110a16126a7565b90506001606a600086815260200190815260200160002060008373ffffffffffffffffffffffffffffffffffffffff1673ffffffffffffffffffffffffffffffffffffffff16815260200190815260200160002060006101000a81548160ff0219169083151502179055508073ffffffffffffffffffffffffffffffffffffffff167fa3732fb20eac8509380c5c261ca362af1679bc1b2dec9e4c8ad72b1a9ebdb82f856040516111529190613838565b60405180910390a250505050565b60356020528060005260406000206000915054906101000a900460ff1681565b606a6020528160005260406000206020528060005260406000206000915091509054906101000a900460ff1681565b6000603660008473ffffffffffffffffffffffffffffffffffffffff1673ffffffffffffffffffffffffffffffffffffffff16815260200190815260200160002060008373ffffffffffffffffffffffffffffffffffffffff1673ffffffffffffffffffffffffffffffffffffffff16815260200190815260200160002060009054906101000a900460ff16905092915050565b600061124e826129d6565b9050919050565b6001600281111561126957611268613853565b5b603560006112756126a7565b73ffffffffffffffffffffffffffffffffffffffff1673ffffffffffffffffffffffffffffffffffffffff16815260200190815260200160002060009054906101000a900460ff1660028111156112cf576112ce613853565b5b1461130f576040517f08c379a000000000000000000000000000000000000000000000000000000000815260040161130690613ff7565b60405180910390fd5b600160338054905011611357576040517f08c379a000000000000000000000000000000000000000000000000000000000815260040161134e906144fc565b60405180910390fd5b6113676113626126a7565b612b68565b565b6000606a600084815260200190815260200160002060008373ffffffffffffffffffffffffffffffffffffffff1673ffffffffffffffffffffffffffffffffffffffff16815260200190815260200160002060009054906101000a900460ff16905092915050565b60606113dd8383612c1f565b905092915050565b600160028111156113f9576113f8613853565b5b603560006114056126a7565b73ffffffffffffffffffffffffffffffffffffffff1673ffffffffffffffffffffffffffffffffffffffff16815260200190815260200160002060009054906101000a900460ff16600281111561145f5761145e613853565b5b1461149f576040517f08c379a000000000000000000000000000000000000000000000000000000000815260040161149690613ff7565b60405180910390fd5b80600160028111156114b4576114b3613853565b5b603560008373ffffffffffffffffffffffffffffffffffffffff1673ffffffffffffffffffffffffffffffffffffffff16815260200190815260200160002060009054906101000a900460ff16600281111561151357611512613853565b5b14611553576040517f08c379a000000000000000000000000000000000000000000000000000000000815260040161154a90614568565b60405180910390fd5b61155b6127ae565b611564836129d6565b1015801561157757506002603380549050115b6115b6576040517f08c379a00000000000000000000000000000000000000000000000000000000081526004016115ad906145fa565b60405180910390fd5b6115bf82612b68565b5050565b6060603380548060200260200160405190810160405280929190818152602001828054801561164757602002820191906000526020600020905b8160009054906101000a900473ffffffffffffffffffffffffffffffffffffffff1673ffffffffffffffffffffffffffffffffffffffff16815260200190600101908083116115fd575b5050505050905090565b60008060019054906101000a900460ff161590508080156116825750600160008054906101000a900460ff1660ff16105b806116af575061169130612d5d565b1580156116ae5750600160008054906101000a900460ff1660ff16145b5b6116ee576040517f08c379a00000000000000000000000000000000000000000000000000000000081526004016116e59061468c565b60405180910390fd5b60016000806101000a81548160ff021916908360ff160217905550801561172b576001600060016101000a81548160ff0219169083151502179055505b61173482612d80565b82606760006101000a81548173ffffffffffffffffffffffffffffffffffffffff021916908373ffffffffffffffffffffffffffffffffffffffff160217905550600060688190555080156117d65760008060016101000a81548160ff0219169083151502179055507f7f26b83ff96e1f2b6a682f133852f6798a09c465da95921460cefb384740249860016040516117cd91906146f4565b60405180910390a15b505050565b60606117ea6001606854612c1f565b905090565b6001600281111561180357611802613853565b5b6035600061180f6126a7565b73ffffffffffffffffffffffffffffffffffffffff1673ffffffffffffffffffffffffffffffffffffffff16815260200190815260200160002060009054906101000a900460ff16600281111561186957611868613853565b5b146118a9576040517f08c379a00000000000000000000000000000000000000000000000000000000081526004016118a090613ff7565b60405180910390fd5b80600060028111156118be576118bd613853565b5b603560008373ffffffffffffffffffffffffffffffffffffffff1673ffffffffffffffffffffffffffffffffffffffff16815260200190815260200160002060009054906101000a900460ff16600281111561191d5761191c613853565b5b1480611998575060028081111561193757611936613853565b5b603560008373ffffffffffffffffffffffffffffffffffffffff1673ffffffffffffffffffffffffffffffffffffffff16815260200190815260200160002060009054906101000a900460ff16600281111561199657611995613853565b5b145b6119d7576040517f08c379a00000000000000000000000000000000000000000000000000000000081526004016119ce90614781565b60405180910390fd5b81603460008273ffffffffffffffffffffffffffffffffffffffff1673ffffffffffffffffffffffffffffffffffffffff16815260200190815260200160002060009054906101000a900460ff16611a64576040517f08c379a0000000000000000000000000000000000000000000000000000000008152600401611a5b90613ef9565b60405180910390fd5b611a6c6127ae565b611a75846129d6565b1015611ab6576040517f08c379a0000000000000000000000000000000000000000000000000000000008152600401611aad906145fa565b60405180910390fd5b611abf83612ddb565b505050565b600080600090505b603380549050811015611c2457600060338281548110611aef57611aee6147a1565b5b9060005260206000200160009054906101000a900473ffffffffffffffffffffffffffffffffffffffff1690506000606a600086815260200190815260200160002060008373ffffffffffffffffffffffffffffffffffffffff1673ffffffffffffffffffffffffffffffffffffffff16815260200190815260200160002060009054906101000a900460ff169050808015611bfb575060016002811115611b9a57611b99613853565b5b603560008473ffffffffffffffffffffffffffffffffffffffff1673ffffffffffffffffffffffffffffffffffffffff16815260200190815260200160002060009054906101000a900460ff166002811115611bf957611bf8613853565b5b145b15611c0f578380611c0b906147d0565b9450505b50508080611c1c906147d0565b915050611acc565b50919050565b60016002811115611c3e57611c3d613853565b5b60356000611c4a6126a7565b73ffffffffffffffffffffffffffffffffffffffff1673ffffffffffffffffffffffffffffffffffffffff16815260200190815260200160002060009054906101000a900460ff166002811115611ca457611ca3613853565b5b14611ce4576040517f08c379a0000000000000000000000000000000000000000000000000000000008152600401611cdb90613ff7565b60405180910390fd5b6000611cee6126a7565b905060006040518060c0016040528060685481526020014281526020018373ffffffffffffffffffffffffffffffffffffffff1681526020018573ffffffffffffffffffffffffffffffffffffffff16815260200184815260200160001515815250905080606960006068548152602001908152602001600020600082015181600001556020820151816001015560408201518160020160006101000a81548173ffffffffffffffffffffffffffffffffffffffff021916908373ffffffffffffffffffffffffffffffffffffffff16021790555060608201518160030160006101000a81548173ffffffffffffffffffffffffffffffffffffffff021916908373ffffffffffffffffffffffffffffffffffffffff1602179055506080820151816004015560a08201518160050160006101000a81548160ff0219169083151502179055509050508173ffffffffffffffffffffffffffffffffffffffff167f0932785c76030b7c97ab762c906e0de0d48cdb6a112a3a90feb29a338abe1cb4606854604051611e7f9190613838565b60405180910390a260686000815480929190611e9a906147d0565b919050555050505050565b60016002811115611eb957611eb8613853565b5b60356000611ec56126a7565b73ffffffffffffffffffffffffffffffffffffffff1673ffffffffffffffffffffffffffffffffffffffff16815260200190815260200160002060009054906101000a900460ff166002811115611f1f57611f1e613853565b5b14611f5f576040517f08c379a0000000000000000000000000000000000000000000000000000000008152600401611f5690613ff7565b60405180910390fd5b8060006002811115611f7457611f73613853565b5b603560008373ffffffffffffffffffffffffffffffffffffffff1673ffffffffffffffffffffffffffffffffffffffff16815260200190815260200160002060009054906101000a900460ff166002811115611fd357611fd2613853565b5b148061204e5750600280811115611fed57611fec613853565b5b603560008373ffffffffffffffffffffffffffffffffffffffff1673ffffffffffffffffffffffffffffffffffffffff16815260200190815260200160002060009054906101000a900460ff16600281111561204c5761204b613853565b5b145b61208d576040517f08c379a000000000000000000000000000000000000000000000000000000000815260040161208490614781565b60405180910390fd5b61209682612ef5565b5050565b80603460008273ffffffffffffffffffffffffffffffffffffffff1673ffffffffffffffffffffffffffffffffffffffff16815260200190815260200160002060009054906101000a900460ff16612127576040517f08c379a000000000000000000000000000000000000000000000000000000000815260040161211e90613ef9565b60405180910390fd5b81603660008273ffffffffffffffffffffffffffffffffffffffff1673ffffffffffffffffffffffffffffffffffffffff16815260200190815260200160002060006121716126a7565b73ffffffffffffffffffffffffffffffffffffffff1673ffffffffffffffffffffffffffffffffffffffff16815260200190815260200160002060009054906101000a900460ff166121f8576040517f08c379a00000000000000000000000000000000000000000000000000000000081526004016121ef90614864565b60405180910390fd5b6001600281111561220c5761220b613853565b5b603560006122186126a7565b73ffffffffffffffffffffffffffffffffffffffff1673ffffffffffffffffffffffffffffffffffffffff16815260200190815260200160002060009054906101000a900460ff16600281111561227257612271613853565b5b146122b2576040517f08c379a00000000000000000000000000000000000000000000000000000000081526004016122a990613ff7565b60405180910390fd5b6122bb836131a3565b505050565b60366020528160005260406000206020528060005260406000206000915091509054906101000a900460ff1681565b60006122fa82611ac4565b9050919050565b606760009054906101000a900473ffffffffffffffffffffffffffffffffffffffff1681565b603281565b60685481565b6001600281111561234657612345613853565b5b603560006123526126a7565b73ffffffffffffffffffffffffffffffffffffffff1673ffffffffffffffffffffffffffffffffffffffff16815260200190815260200160002060009054906101000a900460ff1660028111156123ac576123ab613853565b5b146123ec576040517f08c379a00000000000000000000000000000000000000000000000000000000081526004016123e390613ff7565b60405180910390fd5b60006123f66126a7565b905060006040518060c0016040528060685481526020014281526020018373ffffffffffffffffffffffffffffffffffffffff1681526020018573ffffffffffffffffffffffffffffffffffffffff16815260200184815260200160011515815250905080606960006068548152602001908152602001600020600082015181600001556020820151816001015560408201518160020160006101000a81548173ffffffffffffffffffffffffffffffffffffffff021916908373ffffffffffffffffffffffffffffffffffffffff16021790555060608201518160030160006101000a81548173ffffffffffffffffffffffffffffffffffffffff021916908373ffffffffffffffffffffffffffffffffffffffff1602179055506080820151816004015560a08201518160050160006101000a81548160ff021916908315150217905550905050606760009054906101000a900473ffffffffffffffffffffffffffffffffffffffff1673ffffffffffffffffffffffffffffffffffffffff1663a9059cbb85856040518363ffffffff1660e01b815260040161259c92919061413b565b6020604051808303816000875af11580156125bb573d6000803e3d6000fd5b505050506040513d601f19601f820116820180604052508101906125df9190614190565b508173ffffffffffffffffffffffffffffffffffffffff167f0932785c76030b7c97ab762c906e0de0d48cdb6a112a3a90feb29a338abe1cb46068546040516126289190613838565b60405180910390a26126386126a7565b73ffffffffffffffffffffffffffffffffffffffff167f69ca02dd4edd7bf0a4abb9ed3b7af3f14778db5d61921c7dc7cd545266326de282600001516040516126819190613838565b60405180910390a26068600081548092919061269c906147d0565b919050555050505050565b600033905090565b60006126b96126a7565b90506001603660008473ffffffffffffffffffffffffffffffffffffffff1673ffffffffffffffffffffffffffffffffffffffff16815260200190815260200160002060008373ffffffffffffffffffffffffffffffffffffffff1673ffffffffffffffffffffffffffffffffffffffff16815260200190815260200160002060006101000a81548160ff0219169083151502179055508173ffffffffffffffffffffffffffffffffffffffff168173ffffffffffffffffffffffffffffffffffffffff167f7cd54aa1edf98cff98197375f9268cdadd914729f8bf5618cf6d38d8ca929f4f60405160405180910390a35050565b6000806000905060005b6033805490508110156128a3576000603382815481106127db576127da6147a1565b5b9060005260206000200160009054906101000a900473ffffffffffffffffffffffffffffffffffffffff1690506001600281111561281c5761281b613853565b5b603560008373ffffffffffffffffffffffffffffffffffffffff1673ffffffffffffffffffffffffffffffffffffffff16815260200190815260200160002060009054906101000a900460ff16600281111561287b5761287a613853565b5b0361288f57828061288b906147d0565b9350505b50808061289b906147d0565b9150506127b8565b50600281116128b557809150506128d2565b60016002826128c491906148b3565b6128ce9190614310565b9150505b90565b6033819080600181540180825580915050600190039060005260206000200160009091909190916101000a81548173ffffffffffffffffffffffffffffffffffffffff021916908373ffffffffffffffffffffffffffffffffffffffff1602179055506001603460008373ffffffffffffffffffffffffffffffffffffffff1673ffffffffffffffffffffffffffffffffffffffff16815260200190815260200160002060006101000a81548160ff0219169083151502179055508073ffffffffffffffffffffffffffffffffffffffff167fef4ab4f35cd2027fcc6364f430a86765b6bbd24462cd31f5a6d09bb74241aaf160405160405180910390a250565b600080600090505b603380549050811015612b6257600060338281548110612a0157612a006147a1565b5b9060005260206000200160009054906101000a900473ffffffffffffffffffffffffffffffffffffffff1690506000603660008673ffffffffffffffffffffffffffffffffffffffff1673ffffffffffffffffffffffffffffffffffffffff16815260200190815260200160002060008373ffffffffffffffffffffffffffffffffffffffff1673ffffffffffffffffffffffffffffffffffffffff16815260200190815260200160002060009054906101000a900460ff169050808015612b39575060016002811115612ad857612ad7613853565b5b603560008473ffffffffffffffffffffffffffffffffffffffff1673ffffffffffffffffffffffffffffffffffffffff16815260200190815260200160002060009054906101000a900460ff166002811115612b3757612b36613853565b5b145b15612b4d578380612b49906147d0565b9450505b50508080612b5a906147d0565b9150506129de565b50919050565b6002603560008373ffffffffffffffffffffffffffffffffffffffff1673ffffffffffffffffffffffffffffffffffffffff16815260200190815260200160002060006101000a81548160ff02191690836002811115612bcb57612bca613853565b5b0217905550612bd9816132a2565b8073ffffffffffffffffffffffffffffffffffffffff167f2d760b10f59f9d65a092cfebe73f70fd0a4e19e59791ffd61ee3057a0010ad9860405160405180910390a250565b6060600083118015612c3357506068548311155b612c72576040517f08c379a0000000000000000000000000000000000000000000000000000000008152600401612c6990614956565b60405180910390fd5b60685460018385612c839190614310565b612c8d9190614976565b1115612cb057600183606854612ca39190614976565b612cad9190614310565b91505b8167ffffffffffffffff811115612cca57612cc9613c43565b5b604051908082528060200260200182016040528015612d0357816020015b612cf0613663565b815260200190600190039081612ce85790505b50905060005b82811015612d5657612d258185612d209190614310565b61339c565b828281518110612d3857612d376147a1565b5b60200260200101819052508080612d4e906147d0565b915050612d09565b5092915050565b6000808273ffffffffffffffffffffffffffffffffffffffff163b119050919050565b600060019054906101000a900460ff16612dcf576040517f08c379a0000000000000000000000000000000000000000000000000000000008152600401612dc690614a1c565b60405180910390fd5b612dd8816134ae565b50565b6033819080600181540180825580915050600190039060005260206000200160009091909190916101000a81548173ffffffffffffffffffffffffffffffffffffffff021916908373ffffffffffffffffffffffffffffffffffffffff1602179055506001603560008373ffffffffffffffffffffffffffffffffffffffff1673ffffffffffffffffffffffffffffffffffffffff16815260200190815260200160002060006101000a81548160ff02191690836002811115612ea157612ea0613853565b5b0217905550612eaf816132a2565b8073ffffffffffffffffffffffffffffffffffffffff167fe33dcc75bc96fd7ec9a080c674c4939672c7202cbde28aac81a088b565f2322c60405160405180910390a250565b6000603380549050905060005b8181101561307d578273ffffffffffffffffffffffffffffffffffffffff1660338281548110612f3557612f346147a1565b5b9060005260206000200160009054906101000a900473ffffffffffffffffffffffffffffffffffffffff1673ffffffffffffffffffffffffffffffffffffffff160361306a576033600183612f8a9190614976565b81548110612f9b57612f9a6147a1565b5b9060005260206000200160009054906101000a900473ffffffffffffffffffffffffffffffffffffffff1660338281548110612fda57612fd96147a1565b5b9060005260206000200160006101000a81548173ffffffffffffffffffffffffffffffffffffffff021916908373ffffffffffffffffffffffffffffffffffffffff160217905550603380548061303457613033614a3c565b5b6001900381819060005260206000200160006101000a81549073ffffffffffffffffffffffffffffffffffffffff021916905590555b8080613075906147d0565b915050612f02565b506000603560008473ffffffffffffffffffffffffffffffffffffffff1673ffffffffffffffffffffffffffffffffffffffff16815260200190815260200160002060006101000a81548160ff021916908360028111156130e1576130e0613853565b5b02179055506000603460008473ffffffffffffffffffffffffffffffffffffffff1673ffffffffffffffffffffffffffffffffffffffff16815260200190815260200160002060006101000a81548160ff0219169083151502179055508173ffffffffffffffffffffffffffffffffffffffff1661315d6126a7565b73ffffffffffffffffffffffffffffffffffffffff167ff087ab7127c17b89fdae5be9a669c0ac02cf30312a0363c4a101ecb9a86ead1c60405160405180910390a35050565b60006131ad6126a7565b90506000603660008473ffffffffffffffffffffffffffffffffffffffff1673ffffffffffffffffffffffffffffffffffffffff16815260200190815260200160002060008373ffffffffffffffffffffffffffffffffffffffff1673ffffffffffffffffffffffffffffffffffffffff16815260200190815260200160002060006101000a81548160ff0219169083151502179055508173ffffffffffffffffffffffffffffffffffffffff168173ffffffffffffffffffffffffffffffffffffffff167f2cd3d4223f220d4842a09013396444e71f2bafd026fbfd10b87c674d3ac6949a60405160405180910390a35050565b60005b603380549050811015613398576000603660008473ffffffffffffffffffffffffffffffffffffffff1673ffffffffffffffffffffffffffffffffffffffff168152602001908152602001600020600060338481548110613309576133086147a1565b5b9060005260206000200160009054906101000a900473ffffffffffffffffffffffffffffffffffffffff1673ffffffffffffffffffffffffffffffffffffffff1673ffffffffffffffffffffffffffffffffffffffff16815260200190815260200160002060006101000a81548160ff0219169083151502179055508080613390906147d0565b9150506132a5565b5050565b6133a4613663565b606960008381526020019081526020016000206040518060c001604052908160008201548152602001600182015481526020016002820160009054906101000a900473ffffffffffffffffffffffffffffffffffffffff1673ffffffffffffffffffffffffffffffffffffffff1673ffffffffffffffffffffffffffffffffffffffff1681526020016003820160009054906101000a900473ffffffffffffffffffffffffffffffffffffffff1673ffffffffffffffffffffffffffffffffffffffff1673ffffffffffffffffffffffffffffffffffffffff168152602001600482015481526020016005820160009054906101000a900460ff1615151515815250509050919050565b600060019054906101000a900460ff166134fd576040517f08c379a00000000000000000000000000000000000000000000000000000000081526004016134f490614a1c565b60405180910390fd5b60005b815181101561365f57600082828151811061351e5761351d6147a1565b5b602002602001015190506033819080600181540180825580915050600190039060005260206000200160009091909190916101000a81548173ffffffffffffffffffffffffffffffffffffffff021916908373ffffffffffffffffffffffffffffffffffffffff1602179055506001603560008373ffffffffffffffffffffffffffffffffffffffff1673ffffffffffffffffffffffffffffffffffffffff16815260200190815260200160002060006101000a81548160ff021916908360028111156135ee576135ed613853565b5b02179055506001603460008373ffffffffffffffffffffffffffffffffffffffff1673ffffffffffffffffffffffffffffffffffffffff16815260200190815260200160002060006101000a81548160ff021916908315150217905550508080613657906147d0565b915050613500565b5050565b6040518060c001604052806000815260200160008152602001600073ffffffffffffffffffffffffffffffffffffffff168152602001600073ffffffffffffffffffffffffffffffffffffffff168152602001600081526020016000151581525090565b6000604051905090565b600080fd5b600080fd5b600073ffffffffffffffffffffffffffffffffffffffff82169050919050565b6000613706826136db565b9050919050565b613716816136fb565b811461372157600080fd5b50565b6000813590506137338161370d565b92915050565b60006020828403121561374f5761374e6136d1565b5b600061375d84828501613724565b91505092915050565b60008115159050919050565b61377b81613766565b82525050565b60006020820190506137966000830184613772565b92915050565b6000819050919050565b6137af8161379c565b81146137ba57600080fd5b50565b6000813590506137cc816137a6565b92915050565b6000602082840312156137e8576137e76136d1565b5b60006137f6848285016137bd565b91505092915050565b613808816136fb565b82525050565b600060208201905061382360008301846137ff565b92915050565b6138328161379c565b82525050565b600060208201905061384d6000830184613829565b92915050565b7f4e487b7100000000000000000000000000000000000000000000000000000000600052602160045260246000fd5b6003811061389357613892613853565b5b50565b60008190506138a482613882565b919050565b60006138b482613896565b9050919050565b6138c4816138a9565b82525050565b60006020820190506138df60008301846138bb565b92915050565b600080604083850312156138fc576138fb6136d1565b5b600061390a858286016137bd565b925050602061391b85828601613724565b9150509250929050565b6000806040838503121561393c5761393b6136d1565b5b600061394a85828601613724565b925050602061395b85828601613724565b9150509250929050565b6000806040838503121561397c5761397b6136d1565b5b600061398a858286016137bd565b925050602061399b858286016137bd565b9150509250929050565b600081519050919050565b600082825260208201905092915050565b6000819050602082019050919050565b6139da8161379c565b82525050565b6139e9816136fb565b82525050565b6139f881613766565b82525050565b60c082016000820151613a1460008501826139d1565b506020820151613a2760208501826139d1565b506040820151613a3a60408501826139e0565b506060820151613a4d60608501826139e0565b506080820151613a6060808501826139d1565b5060a0820151613a7360a08501826139ef565b50505050565b6000613a8583836139fe565b60c08301905092915050565b6000602082019050919050565b6000613aa9826139a5565b613ab381856139b0565b9350613abe836139c1565b8060005b83811015613aef578151613ad68882613a79565b9750613ae183613a91565b925050600181019050613ac2565b5085935050505092915050565b60006020820190508181036000830152613b168184613a9e565b905092915050565b600081519050919050565b600082825260208201905092915050565b6000819050602082019050919050565b6000613b5683836139e0565b60208301905092915050565b6000602082019050919050565b6000613b7a82613b1e565b613b848185613b29565b9350613b8f83613b3a565b8060005b83811015613bc0578151613ba78882613b4a565b9750613bb283613b62565b925050600181019050613b93565b5085935050505092915050565b60006020820190508181036000830152613be78184613b6f565b905092915050565b6000613bfa826136fb565b9050919050565b613c0a81613bef565b8114613c1557600080fd5b50565b600081359050613c2781613c01565b92915050565b600080fd5b6000601f19601f8301169050919050565b7f4e487b7100000000000000000000000000000000000000000000000000000000600052604160045260246000fd5b613c7b82613c32565b810181811067ffffffffffffffff82111715613c9a57613c99613c43565b5b80604052505050565b6000613cad6136c7565b9050613cb98282613c72565b919050565b600067ffffffffffffffff821115613cd957613cd8613c43565b5b602082029050602081019050919050565b600080fd5b6000613d02613cfd84613cbe565b613ca3565b90508083825260208201905060208402830185811115613d2557613d24613cea565b5b835b81811015613d4e5780613d3a8882613724565b845260208401935050602081019050613d27565b5050509392505050565b600082601f830112613d6d57613d6c613c2d565b5b8135613d7d848260208601613cef565b91505092915050565b60008060408385031215613d9d57613d9c6136d1565b5b6000613dab85828601613c18565b925050602083013567ffffffffffffffff811115613dcc57613dcb6136d6565b5b613dd885828601613d58565b9150509250929050565b60008060408385031215613df957613df86136d1565b5b6000613e0785828601613724565b9250506020613e18858286016137bd565b9150509250929050565b6000819050919050565b6000613e47613e42613e3d846136db565b613e22565b6136db565b9050919050565b6000613e5982613e2c565b9050919050565b6000613e6b82613e4e565b9050919050565b613e7b81613e60565b82525050565b6000602082019050613e966000830184613e72565b92915050565b600082825260208201905092915050565b7f4d756c746953696720436f6e74726163743a204e6f7420657869737421000000600082015250565b6000613ee3601d83613e9c565b9150613eee82613ead565b602082019050919050565b60006020820190508181036000830152613f1281613ed6565b9050919050565b7f4d756c746953696720436f6e74726163743a2041636365707465642100000000600082015250565b6000613f4f601c83613e9c565b9150613f5a82613f19565b602082019050919050565b60006020820190508181036000830152613f7e81613f42565b9050919050565b7f4d756c746953696720436f6e74726163743a2053656e646572206973206e6f7460008201527f206f776e65722100000000000000000000000000000000000000000000000000602082015250565b6000613fe1602783613e9c565b9150613fec82613f85565b604082019050919050565b6000602082019050818103600083015261401081613fd4565b9050919050565b7f546f6b656e4d616e6167656d656e7420436f6e74726163743a204e6f7420656e60008201527f6f75676820766f74657321000000000000000000000000000000000000000000602082015250565b6000614073602b83613e9c565b915061407e82614017565b604082019050919050565b600060208201905081810360008301526140a281614066565b9050919050565b7f546f6b656e4d616e6167656d656e7420436f6e74726163743a207472616e736660008201527f6572656421000000000000000000000000000000000000000000000000000000602082015250565b6000614105602583613e9c565b9150614110826140a9565b604082019050919050565b60006020820190508181036000830152614134816140f8565b9050919050565b600060408201905061415060008301856137ff565b61415d6020830184613829565b9392505050565b61416d81613766565b811461417857600080fd5b50565b60008151905061418a81614164565b92915050565b6000602082840312156141a6576141a56136d1565b5b60006141b48482850161417b565b91505092915050565b7f546f6b656e4d616e6167656d656e7420436f6e74726163743a2041636365707460008201527f6564210000000000000000000000000000000000000000000000000000000000602082015250565b6000614219602383613e9c565b9150614224826141bd565b604082019050919050565b600060208201905081810360008301526142488161420c565b9050919050565b7f4d756c746953696720436f6e74726163743a204163636f756e7420657869737460008201527f6564210000000000000000000000000000000000000000000000000000000000602082015250565b60006142ab602383613e9c565b91506142b68261424f565b604082019050919050565b600060208201905081810360008301526142da8161429e565b9050919050565b7f4e487b7100000000000000000000000000000000000000000000000000000000600052601160045260246000fd5b600061431b8261379c565b91506143268361379c565b9250827fffffffffffffffffffffffffffffffffffffffffffffffffffffffffffffffff0382111561435b5761435a6142e1565b5b828201905092915050565b7f4d756c746953696720436f6e74726163743a204c696d6974207265616368656460008201527f2100000000000000000000000000000000000000000000000000000000000000602082015250565b60006143c2602183613e9c565b91506143cd82614366565b604082019050919050565b600060208201905081810360008301526143f1816143b5565b9050919050565b7f546f6b656e4d616e6167656d656e7420436f6e74726163743a2052656a65637460008201527f6564210000000000000000000000000000000000000000000000000000000000602082015250565b6000614454602383613e9c565b915061445f826143f8565b604082019050919050565b6000602082019050818103600083015261448381614447565b9050919050565b7f4d756c746953696720436f6e74726163743a204c6173742061646d696e69737460008201527f7261746f72210000000000000000000000000000000000000000000000000000602082015250565b60006144e6602683613e9c565b91506144f18261448a565b604082019050919050565b60006020820190508181036000830152614515816144d9565b9050919050565b7f4d756c746953696720436f6e74726163743a204e6f74206f776e657221000000600082015250565b6000614552601d83613e9c565b915061455d8261451c565b602082019050919050565b6000602082019050818103600083015261458181614545565b9050919050565b7f4d756c746953696720436f6e74726163743a204e6f7420656e6f75676820766f60008201527f7465732100000000000000000000000000000000000000000000000000000000602082015250565b60006145e4602483613e9c565b91506145ef82614588565b604082019050919050565b60006020820190508181036000830152614613816145d7565b9050919050565b7f496e697469616c697a61626c653a20636f6e747261637420697320616c72656160008201527f647920696e697469616c697a6564000000000000000000000000000000000000602082015250565b6000614676602e83613e9c565b91506146818261461a565b604082019050919050565b600060208201905081810360008301526146a581614669565b9050919050565b6000819050919050565b600060ff82169050919050565b60006146de6146d96146d4846146ac565b613e22565b6146b6565b9050919050565b6146ee816146c3565b82525050565b600060208201905061470960008301846146e5565b92915050565b7f4d756c746953696720436f6e74726163743a20416c7265616479206f776e657260008201527f2100000000000000000000000000000000000000000000000000000000000000602082015250565b600061476b602183613e9c565b91506147768261470f565b604082019050919050565b6000602082019050818103600083015261479a8161475e565b9050919050565b7f4e487b7100000000000000000000000000000000000000000000000000000000600052603260045260246000fd5b60006147db8261379c565b91507fffffffffffffffffffffffffffffffffffffffffffffffffffffffffffffffff820361480d5761480c6142e1565b5b600182019050919050565b7f4d756c746953696720436f6e74726163743a204e6f7420616363657074210000600082015250565b600061484e601e83613e9c565b915061485982614818565b602082019050919050565b6000602082019050818103600083015261487d81614841565b9050919050565b7f4e487b7100000000000000000000000000000000000000000000000000000000600052601260045260246000fd5b60006148be8261379c565b91506148c98361379c565b9250826148d9576148d8614884565b5b828204905092915050565b7f546f6b656e4d616e6167656d656e7420436f6e74726163743a20496e76616c6960008201527f64205f6f66667365742100000000000000000000000000000000000000000000602082015250565b6000614940602a83613e9c565b915061494b826148e4565b604082019050919050565b6000602082019050818103600083015261496f81614933565b9050919050565b60006149818261379c565b915061498c8361379c565b92508282101561499f5761499e6142e1565b5b828203905092915050565b7f496e697469616c697a61626c653a20636f6e7472616374206973206e6f74206960008201527f6e697469616c697a696e67000000000000000000000000000000000000000000602082015250565b6000614a06602b83613e9c565b9150614a11826149aa565b604082019050919050565b60006020820190508181036000830152614a35816149f9565b9050919050565b7f4e487b7100000000000000000000000000000000000000000000000000000000600052603160045260246000fdfea26469706673582212204714b24149958160b1eff06c27f8fa9b70a2bcaf96459cf7519f5f83d711d4ac64736f6c634300080d0033",
  "immutableReferences": {},
  "source": "// SPDX-License-Identifier: MIT\r\npragma solidity ^0.8.13;\r\nimport \"@openzeppelin/contracts-upgradeable/proxy/utils/Initializable.sol\";\r\nimport \"@openzeppelin/contracts/token/ERC20/IERC20.sol\";\r\nimport \"./interfaces/ITokenManagement.sol\";\r\nimport \"./AutomaticOwnershipManagement.sol\";\r\n\r\n/**\r\n * @author tuan.dq.\r\n * @title Allow automatic management of administrative rights.\r\n */\r\ncontract TokenManagement is\r\n  Initializable,\r\n  ITokenManagement,\r\n  AutomaticOwnershipManagement\r\n{\r\n  /**\r\n   * Storage\r\n   */\r\n\r\n  IERC20 public ERC20TOKEN;\r\n\r\n  uint256 public transferCount;\r\n\r\n  mapping(uint256 => TransferData) transfers;\r\n\r\n  mapping(uint256 => mapping(address => bool)) public transferVotes;\r\n\r\n  /// @custom:oz-upgrades-unsafe-allow constructor\r\n  constructor() {\r\n    _disableInitializers();\r\n  }\r\n\r\n  modifier transferAccepted(uint256 id) {\r\n    address sender = _msgSender();\r\n    require(transferVotes[id][sender], \"TokenManagement Contract: Accepted!\");\r\n    _;\r\n  }\r\n\r\n  modifier transferRejected(uint256 id) {\r\n    address sender = _msgSender();\r\n    require(!transferVotes[id][sender], \"TokenManagement Contract: Rejected!\");\r\n    _;\r\n  }\r\n\r\n  modifier transferEnoughVotes(uint256 id) {\r\n    require(\r\n      _getTransferVoteCount(id) >= _getRequired(),\r\n      \"TokenManagement Contract: Not enough votes!\"\r\n    );\r\n    _;\r\n  }\r\n\r\n  modifier notTransfer(uint256 id) {\r\n    require(!transfers[id].used, \"TokenManagement Contract: transfered!\");\r\n    _;\r\n  }\r\n\r\n  function initialize(IERC20 ERC20TOKEN_, address[] memory initialOwners_)\r\n    public\r\n    initializer\r\n  {\r\n    __AutomaticOwnershipManagement_init(initialOwners_);\r\n    ERC20TOKEN = ERC20TOKEN_;\r\n    transferCount = 0;\r\n  }\r\n\r\n  /**\r\n   * Public functions\r\n   */\r\n  function requestNewTransfer(address to, uint256 amount)\r\n    public\r\n    override\r\n    onlyOwner\r\n  {\r\n    address sender = _msgSender();\r\n    TransferData memory data = TransferData(\r\n      transferCount,\r\n      block.timestamp,\r\n      sender,\r\n      to,\r\n      amount,\r\n      false\r\n    );\r\n    transfers[transferCount] = data;\r\n    emit NewTransfer(sender, transferCount);\r\n    transferCount++;\r\n  }\r\n\r\n  function acceptTransfer(uint256 id)\r\n    public\r\n    override\r\n    onlyOwner\r\n    transferRejected(id)\r\n  {\r\n    address sender = _msgSender();\r\n    transferVotes[id][sender] = true;\r\n    emit AcceptTransfer(sender, id);\r\n  }\r\n\r\n  function rejectTransfer(uint256 id)\r\n    public\r\n    override\r\n    onlyOwner\r\n    transferAccepted(id)\r\n  {\r\n    address sender = _msgSender();\r\n    transferVotes[id][sender] = false;\r\n    emit RejectTransfer(sender, id);\r\n  }\r\n\r\n  function transfer(uint256 id)\r\n    public\r\n    override\r\n    onlyOwner\r\n    transferEnoughVotes(id)\r\n    notTransfer(id)\r\n  {\r\n    TransferData storage transaction = transfers[id];\r\n    transaction.used = true;\r\n    ERC20TOKEN.transfer(transaction.to, transaction.amount);\r\n    emit Transfer(_msgSender(), id);\r\n  }\r\n\r\n  function forceTransfer(address to, uint256 amount) public override onlyOwner {\r\n    address sender = _msgSender();\r\n    TransferData memory data = TransferData(\r\n      transferCount,\r\n      block.timestamp,\r\n      sender,\r\n      to,\r\n      amount,\r\n      true\r\n    );\r\n    transfers[transferCount] = data;\r\n    ERC20TOKEN.transfer(to, amount);\r\n    emit NewTransfer(sender, transferCount);\r\n    emit Transfer(_msgSender(), data.id);\r\n    transferCount++;\r\n  }\r\n\r\n  /**\r\n   * View functions\r\n   */\r\n\r\n  function getAccountVote(uint256 id, address account)\r\n    public\r\n    view\r\n    override\r\n    returns (bool)\r\n  {\r\n    return transferVotes[id][account];\r\n  }\r\n\r\n  function getTransferVoteCount(uint256 id)\r\n    public\r\n    view\r\n    override\r\n    returns (uint256)\r\n  {\r\n    return _getTransferVoteCount(id);\r\n  }\r\n\r\n  function getPagingTransferData(uint256 offset, uint256 length)\r\n    public\r\n    view\r\n    override\r\n    returns (TransferData[] memory)\r\n  {\r\n    return _getPagingData(offset, length);\r\n  }\r\n\r\n  function getAllTransferData()\r\n    public\r\n    view\r\n    override\r\n    returns (TransferData[] memory)\r\n  {\r\n    return _getPagingData(1, transferCount);\r\n  }\r\n\r\n  /**\r\n   * Private functions\r\n   */\r\n  function _getTransferVoteCount(uint256 _id)\r\n    public\r\n    view\r\n    returns (uint256 count)\r\n  {\r\n    for (uint256 index = 0; index < owners?.length; index++) {\r\n      address owner = owners[index];\r\n      bool vote = transferVotes[_id][owner];\r\n      if (vote && isOwner[owner] == Status.ACTIVE) {\r\n        count++;\r\n      }\r\n    }\r\n  }\r\n\r\n  function _getPagingData(uint256 _offset, uint256 _length)\r\n    private\r\n    view\r\n    returns (TransferData[] memory results)\r\n  {\r\n    require(\r\n      _offset > 0 && _offset <= transferCount,\r\n      \"TokenManagement Contract: Invalid _offset!\"\r\n    );\r\n    if (_offset + _length - 1 > transferCount) {\r\n      _length = transferCount - _offset + 1;\r\n    }\r\n\r\n    results = new TransferData[](_length);\r\n    for (uint256 i = 0; i < _length; i++) {\r\n      results[i] = _getTransferData(_offset + i);\r\n    }\r\n  }\r\n\r\n  function _getTransferData(uint256 _id)\r\n    private\r\n    view\r\n    returns (TransferData memory data)\r\n  {\r\n    data = transfers[_id];\r\n  }\r\n}\r\n",
  "sourcePath": "D:\\ivirse\\smart-contract\\contracts\\TokenManagement.sol",
  "compiler": {
    "name": "solc",
    "version": "0.8.13+commit.abaa5c0e.Emscripten.clang"
  },
  "schemaVersion": "3.4.9",
  "updatedAt": "2022-12-02T09:19:16.112Z",
  "devdoc": {
    "author": "tuan.dq.",
    "kind": "dev",
    "methods": {
      "constructor": {
        "custom:oz-upgrades-unsafe-allow": "constructor"
      }
    },
    "title": "Allow automatic management of administrative rights.",
    "version": 1
  },
  "userdoc": {
    "events": {
      "NewTransfer(uint256,uint256,address,address,uint256)": {
        "notice": "Events"
      }
    },
    "kind": "user",
    "methods": {
      "ERC20TOKEN()": {
        "notice": "Storage"
      },
      "MAX_OWNER_COUNT()": {
        "notice": "Constants"
      },
      "_getTransferVoteCount(uint256)": {
        "notice": "Private functions"
      },
      "getAccountVote(uint256,address)": {
        "notice": "View functions"
      },
      "getRequired()": {
        "notice": "View functions"
      },
      "owners(uint256)": {
        "notice": "Storage"
      },
      "requestNewOwner(address)": {
        "notice": "Public functions"
      },
      "requestNewTransfer(address,uint256)": {
        "notice": "Public functions"
      }
    },
    "version": 1
  }
}